{"contracts/StakingContract.sol":{"StakingContract":{"abi":[{"inputs":[{"internalType":"address","name":"_owner","type":"address"},{"internalType":"uint256","name":"_max_people","type":"uint256"}],"stateMutability":"nonpayable","type":"constructor"},{"anonymous":false,"inputs":[{"indexed":false,"internalType":"string","name":"func","type":"string"},{"indexed":false,"internalType":"uint256","name":"gas","type":"uint256"}],"name":"Log","type":"event"},{"anonymous":false,"inputs":[{"indexed":false,"internalType":"uint256","name":"oldNumber","type":"uint256"},{"indexed":false,"internalType":"uint256","name":"newNumber","type":"uint256"}],"name":"NumberUpdated","type":"event"},{"anonymous":false,"inputs":[{"indexed":true,"internalType":"address","name":"account","type":"address"},{"indexed":false,"internalType":"string","name":"name","type":"string"},{"indexed":false,"internalType":"uint8","name":"age","type":"uint8"},{"indexed":false,"internalType":"uint256","name":"balance","type":"uint256"}],"name":"UserAdded","type":"event"},{"anonymous":false,"inputs":[{"indexed":true,"internalType":"address","name":"account","type":"address"},{"indexed":false,"internalType":"string","name":"name","type":"string"},{"indexed":false,"internalType":"uint8","name":"age","type":"uint8"},{"indexed":false,"internalType":"uint256","name":"balance","type":"uint256"}],"name":"UserWithdrew","type":"event"},{"stateMutability":"payable","type":"fallback"},{"inputs":[],"name":"MAX_PEOPLE","outputs":[{"internalType":"uint256","name":"","type":"uint256"}],"stateMutability":"view","type":"function"},{"inputs":[{"internalType":"uint256","name":"a","type":"uint256"},{"internalType":"uint256","name":"b","type":"uint256"}],"name":"add","outputs":[{"internalType":"uint256","name":"","type":"uint256"}],"stateMutability":"pure","type":"function"},{"inputs":[{"internalType":"string","name":"_name","type":"string"},{"internalType":"uint8","name":"_age","type":"uint8"},{"internalType":"enum StakingContract.Ethnicity","name":"ethnicity","type":"uint8"}],"name":"addUser","outputs":[],"stateMutability":"nonpayable","type":"function"},{"inputs":[{"internalType":"uint8","name":"_years","type":"uint8"}],"name":"getAge","outputs":[{"internalType":"uint8","name":"","type":"uint8"}],"stateMutability":"view","type":"function"},{"inputs":[],"name":"getUserCount","outputs":[{"internalType":"uint256","name":"","type":"uint256"}],"stateMutability":"view","type":"function"},{"inputs":[],"name":"owner","outputs":[{"internalType":"address","name":"","type":"address"}],"stateMutability":"view","type":"function"},{"inputs":[{"internalType":"uint256","name":"","type":"uint256"}],"name":"userAddresses","outputs":[{"internalType":"address","name":"","type":"address"}],"stateMutability":"view","type":"function"},{"inputs":[{"internalType":"address","name":"_address","type":"address"}],"name":"userDetails","outputs":[{"internalType":"string","name":"name","type":"string"},{"internalType":"uint8","name":"age","type":"uint8"}],"stateMutability":"view","type":"function"},{"inputs":[{"internalType":"address","name":"","type":"address"}],"name":"users","outputs":[{"internalType":"string","name":"name","type":"string"},{"internalType":"uint8","name":"age","type":"uint8"},{"internalType":"enum StakingContract.Ethnicity","name":"ethnicity","type":"uint8"},{"internalType":"uint256","name":"balance","type":"uint256"},{"internalType":"uint256","name":"index","type":"uint256"},{"internalType":"bool","name":"exists","type":"bool"}],"stateMutability":"view","type":"function"},{"inputs":[],"name":"withdraw","outputs":[],"stateMutability":"nonpayable","type":"function"},{"stateMutability":"payable","type":"receive"}],"devdoc":{"kind":"dev","methods":{},"version":1},"evm":{"bytecode":{"linkReferences":{},"object":"60c0604052600a60a0523480156013575f80fd5b50604051610a7a380380610a7a8339810160408190526030916045565b6001600160a01b0390911660805260a052607a565b5f80604083850312156055575f80fd5b82516001600160a01b0381168114606a575f80fd5b6020939093015192949293505050565b60805160a0516109df61009b5f395f61015b01525f61026b01526109df5ff3fe608060405260043610610094575f3560e01c8063771602f711610058578063771602f71461023b5780638da5cb5b1461025a578063a87430ba1461028d578063b5cb15f7146102be578063d8544aea146102d2576100f6565b80630f81b49f1461014a5780633ccfd60b1461019057806347e12f8c146101a657806348dec2a7146101d7578063502c9bd514610204576100f6565b366100f6577fdd970dd9b5bfe707922155b058a407655cb18288b807e2216442bca8ad83d6b55a6040516100ec91906040808252600790820152667265636569766560c81b6060820152602081019190915260800190565b60405180910390a1005b7fdd970dd9b5bfe707922155b058a407655cb18288b807e2216442bca8ad83d6b55a6040516100ec919060408082526008908201526766616c6c6261636b60c01b6060820152602081019190915260800190565b348015610155575f80fd5b5061017d7f000000000000000000000000000000000000000000000000000000000000000081565b6040519081526020015b60405180910390f35b34801561019b575f80fd5b506101a46102f1565b005b3480156101b1575f80fd5b506101c56101c0366004610716565b610305565b60405160ff9091168152602001610187565b3480156101e2575f80fd5b506101f66101f1366004610736565b61043a565b60405161018792919061078a565b34801561020f575f80fd5b5061022361021e3660046107ae565b610572565b6040516001600160a01b039091168152602001610187565b348015610246575f80fd5b5061017d6102553660046107c5565b61059a565b348015610265575f80fd5b506102237f000000000000000000000000000000000000000000000000000000000000000081565b348015610298575f80fd5b506102ac6102a7366004610736565b610617565b604051610187969594939291906107f9565b3480156102c9575f80fd5b5060015461017d565b3480156102dd575f80fd5b506101a46102ec366004610879565b505050565b5f5c156102fc575f80fd5b60015f5d5f805d565b335f90815260208190526040808220815160c08101909252805483929190829082906103309061094c565b80601f016020809104026020016040519081016040528092919081815260200182805461035c9061094c565b80156103a75780601f1061037e576101008083540402835291602001916103a7565b820191905f5260205f20905b81548152906001019060200180831161038a57829003601f168201915b5050509183525050600182015460ff80821660208401526040909201916101009091041660028111156103dc576103dc6107e5565b60028111156103ed576103ed6107e5565b815260028201546020808301919091526003830154604083015260049092015460ff161515606090910152810151909150610429908490610984565b60ff16602090910181905292915050565b60605f805f80856001600160a01b03166001600160a01b031681526020019081526020015f206040518060c00160405290815f8201805461047a9061094c565b80601f01602080910402602001604051908101604052809291908181526020018280546104a69061094c565b80156104f15780601f106104c8576101008083540402835291602001916104f1565b820191905f5260205f20905b8154815290600101906020018083116104d457829003601f168201915b5050509183525050600182015460ff8082166020840152604090920191610100909104166002811115610526576105266107e5565b6002811115610537576105376107e5565b815260028201546020808301919091526003830154604083015260049092015460ff1615156060909101528151910151909590945092505050565b60018181548110610581575f80fd5b5f918252602090912001546001600160a01b0316905081565b5f805f6105a785856106da565b91509150811561060d5760405162461bcd60e51b815260206004820152602760248201527f4164646974696f6e2068617320726573756c74656420696e20616e206f7665726044820152660ccd8deee4074560cb1b606482015260840160405180910390fd5b9150505b92915050565b5f602081905290815260409020805481906106319061094c565b80601f016020809104026020016040519081016040528092919081815260200182805461065d9061094c565b80156106a85780601f1061067f576101008083540402835291602001916106a8565b820191905f5260205f20905b81548152906001019060200180831161068b57829003601f168201915b505050600184015460028501546003860154600490960154949560ff8084169661010090940481169550919350911686565b5f80838301848110156106f3575f8092509250506106fa565b6001925090505b9250929050565b803560ff81168114610711575f80fd5b919050565b5f60208284031215610726575f80fd5b61072f82610701565b9392505050565b5f60208284031215610746575f80fd5b81356001600160a01b038116811461072f575f80fd5b5f81518084528060208401602086015e5f602082860101526020601f19601f83011685010191505092915050565b604081525f61079c604083018561075c565b905060ff831660208301529392505050565b5f602082840312156107be575f80fd5b5035919050565b5f80604083850312156107d6575f80fd5b50508035926020909101359150565b634e487b7160e01b5f52602160045260245ffd5b60c081525f61080b60c083018961075c565b905060ff871660208301526003861061083257634e487b7160e01b5f52602160045260245ffd5b85604083015284606083015283608083015282151560a0830152979650505050505050565b634e487b7160e01b5f52604160045260245ffd5b803560038110610711575f80fd5b5f805f6060848603121561088b575f80fd5b833567ffffffffffffffff8111156108a1575f80fd5b8401601f810186136108b1575f80fd5b803567ffffffffffffffff8111156108cb576108cb610857565b604051601f8201601f19908116603f0116810167ffffffffffffffff811182821017156108fa576108fa610857565b604052818152828201602001881015610911575f80fd5b816020840160208301375f6020838301015280955050505061093560208501610701565b91506109436040850161086b565b90509250925092565b600181811c9082168061096057607f821691505b60208210810361097e57634e487b7160e01b5f52602260045260245ffd5b50919050565b60ff818116838216019081111561061157634e487b7160e01b5f52601160045260245ffdfea26469706673582212206ca7de817d3ee5175424e1f0b246ba6caaab81a8a3f3907a34f0e03ff02d999a64736f6c634300081a0033","opcodes":"PUSH1 0xC0 PUSH1 0x40 MSTORE PUSH1 0xA PUSH1 0xA0 MSTORE CALLVALUE DUP1 ISZERO PUSH1 0x13 JUMPI PUSH0 DUP1 REVERT JUMPDEST POP PUSH1 0x40 MLOAD PUSH2 0xA7A CODESIZE SUB DUP1 PUSH2 0xA7A DUP4 CODECOPY DUP2 ADD PUSH1 0x40 DUP2 SWAP1 MSTORE PUSH1 0x30 SWAP2 PUSH1 0x45 JUMP JUMPDEST PUSH1 0x1 PUSH1 0x1 PUSH1 0xA0 SHL SUB SWAP1 SWAP2 AND PUSH1 0x80 MSTORE PUSH1 0xA0 MSTORE PUSH1 0x7A JUMP JUMPDEST PUSH0 DUP1 PUSH1 0x40 DUP4 DUP6 SUB SLT ISZERO PUSH1 0x55 JUMPI PUSH0 DUP1 REVERT JUMPDEST DUP3 MLOAD PUSH1 0x1 PUSH1 0x1 PUSH1 0xA0 SHL SUB DUP2 AND DUP2 EQ PUSH1 0x6A JUMPI PUSH0 DUP1 REVERT JUMPDEST PUSH1 0x20 SWAP4 SWAP1 SWAP4 ADD MLOAD SWAP3 SWAP5 SWAP3 SWAP4 POP POP POP JUMP JUMPDEST PUSH1 0x80 MLOAD PUSH1 0xA0 MLOAD PUSH2 0x9DF PUSH2 0x9B PUSH0 CODECOPY PUSH0 PUSH2 0x15B ADD MSTORE PUSH0 PUSH2 0x26B ADD MSTORE PUSH2 0x9DF PUSH0 RETURN INVALID PUSH1 0x80 PUSH1 0x40 MSTORE PUSH1 0x4 CALLDATASIZE LT PUSH2 0x94 JUMPI PUSH0 CALLDATALOAD PUSH1 0xE0 SHR DUP1 PUSH4 0x771602F7 GT PUSH2 0x58 JUMPI DUP1 PUSH4 0x771602F7 EQ PUSH2 0x23B JUMPI DUP1 PUSH4 0x8DA5CB5B EQ PUSH2 0x25A JUMPI DUP1 PUSH4 0xA87430BA EQ PUSH2 0x28D JUMPI DUP1 PUSH4 0xB5CB15F7 EQ PUSH2 0x2BE JUMPI DUP1 PUSH4 0xD8544AEA EQ PUSH2 0x2D2 JUMPI PUSH2 0xF6 JUMP JUMPDEST DUP1 PUSH4 0xF81B49F EQ PUSH2 0x14A JUMPI DUP1 PUSH4 0x3CCFD60B EQ PUSH2 0x190 JUMPI DUP1 PUSH4 0x47E12F8C EQ PUSH2 0x1A6 JUMPI DUP1 PUSH4 0x48DEC2A7 EQ PUSH2 0x1D7 JUMPI DUP1 PUSH4 0x502C9BD5 EQ PUSH2 0x204 JUMPI PUSH2 0xF6 JUMP JUMPDEST CALLDATASIZE PUSH2 0xF6 JUMPI PUSH32 0xDD970DD9B5BFE707922155B058A407655CB18288B807E2216442BCA8AD83D6B5 GAS PUSH1 0x40 MLOAD PUSH2 0xEC SWAP2 SWAP1 PUSH1 0x40 DUP1 DUP3 MSTORE PUSH1 0x7 SWAP1 DUP3 ADD MSTORE PUSH7 0x72656365697665 PUSH1 0xC8 SHL PUSH1 0x60 DUP3 ADD MSTORE PUSH1 0x20 DUP2 ADD SWAP2 SWAP1 SWAP2 MSTORE PUSH1 0x80 ADD SWAP1 JUMP JUMPDEST PUSH1 0x40 MLOAD DUP1 SWAP2 SUB SWAP1 LOG1 STOP JUMPDEST PUSH32 0xDD970DD9B5BFE707922155B058A407655CB18288B807E2216442BCA8AD83D6B5 GAS PUSH1 0x40 MLOAD PUSH2 0xEC SWAP2 SWAP1 PUSH1 0x40 DUP1 DUP3 MSTORE PUSH1 0x8 SWAP1 DUP3 ADD MSTORE PUSH8 0x66616C6C6261636B PUSH1 0xC0 SHL PUSH1 0x60 DUP3 ADD MSTORE PUSH1 0x20 DUP2 ADD SWAP2 SWAP1 SWAP2 MSTORE PUSH1 0x80 ADD SWAP1 JUMP JUMPDEST CALLVALUE DUP1 ISZERO PUSH2 0x155 JUMPI PUSH0 DUP1 REVERT JUMPDEST POP PUSH2 0x17D PUSH32 0x0 DUP2 JUMP JUMPDEST PUSH1 0x40 MLOAD SWAP1 DUP2 MSTORE PUSH1 0x20 ADD JUMPDEST PUSH1 0x40 MLOAD DUP1 SWAP2 SUB SWAP1 RETURN JUMPDEST CALLVALUE DUP1 ISZERO PUSH2 0x19B JUMPI PUSH0 DUP1 REVERT JUMPDEST POP PUSH2 0x1A4 PUSH2 0x2F1 JUMP JUMPDEST STOP JUMPDEST CALLVALUE DUP1 ISZERO PUSH2 0x1B1 JUMPI PUSH0 DUP1 REVERT JUMPDEST POP PUSH2 0x1C5 PUSH2 0x1C0 CALLDATASIZE PUSH1 0x4 PUSH2 0x716 JUMP JUMPDEST PUSH2 0x305 JUMP JUMPDEST PUSH1 0x40 MLOAD PUSH1 0xFF SWAP1 SWAP2 AND DUP2 MSTORE PUSH1 0x20 ADD PUSH2 0x187 JUMP JUMPDEST CALLVALUE DUP1 ISZERO PUSH2 0x1E2 JUMPI PUSH0 DUP1 REVERT JUMPDEST POP PUSH2 0x1F6 PUSH2 0x1F1 CALLDATASIZE PUSH1 0x4 PUSH2 0x736 JUMP JUMPDEST PUSH2 0x43A JUMP JUMPDEST PUSH1 0x40 MLOAD PUSH2 0x187 SWAP3 SWAP2 SWAP1 PUSH2 0x78A JUMP JUMPDEST CALLVALUE DUP1 ISZERO PUSH2 0x20F JUMPI PUSH0 DUP1 REVERT JUMPDEST POP PUSH2 0x223 PUSH2 0x21E CALLDATASIZE PUSH1 0x4 PUSH2 0x7AE JUMP JUMPDEST PUSH2 0x572 JUMP JUMPDEST PUSH1 0x40 MLOAD PUSH1 0x1 PUSH1 0x1 PUSH1 0xA0 SHL SUB SWAP1 SWAP2 AND DUP2 MSTORE PUSH1 0x20 ADD PUSH2 0x187 JUMP JUMPDEST CALLVALUE DUP1 ISZERO PUSH2 0x246 JUMPI PUSH0 DUP1 REVERT JUMPDEST POP PUSH2 0x17D PUSH2 0x255 CALLDATASIZE PUSH1 0x4 PUSH2 0x7C5 JUMP JUMPDEST PUSH2 0x59A JUMP JUMPDEST CALLVALUE DUP1 ISZERO PUSH2 0x265 JUMPI PUSH0 DUP1 REVERT JUMPDEST POP PUSH2 0x223 PUSH32 0x0 DUP2 JUMP JUMPDEST CALLVALUE DUP1 ISZERO PUSH2 0x298 JUMPI PUSH0 DUP1 REVERT JUMPDEST POP PUSH2 0x2AC PUSH2 0x2A7 CALLDATASIZE PUSH1 0x4 PUSH2 0x736 JUMP JUMPDEST PUSH2 0x617 JUMP JUMPDEST PUSH1 0x40 MLOAD PUSH2 0x187 SWAP7 SWAP6 SWAP5 SWAP4 SWAP3 SWAP2 SWAP1 PUSH2 0x7F9 JUMP JUMPDEST CALLVALUE DUP1 ISZERO PUSH2 0x2C9 JUMPI PUSH0 DUP1 REVERT JUMPDEST POP PUSH1 0x1 SLOAD PUSH2 0x17D JUMP JUMPDEST CALLVALUE DUP1 ISZERO PUSH2 0x2DD JUMPI PUSH0 DUP1 REVERT JUMPDEST POP PUSH2 0x1A4 PUSH2 0x2EC CALLDATASIZE PUSH1 0x4 PUSH2 0x879 JUMP JUMPDEST POP POP POP JUMP JUMPDEST PUSH0 TLOAD ISZERO PUSH2 0x2FC JUMPI PUSH0 DUP1 REVERT JUMPDEST PUSH1 0x1 PUSH0 TSTORE PUSH0 DUP1 TSTORE JUMP JUMPDEST CALLER PUSH0 SWAP1 DUP2 MSTORE PUSH1 0x20 DUP2 SWAP1 MSTORE PUSH1 0x40 DUP1 DUP3 KECCAK256 DUP2 MLOAD PUSH1 0xC0 DUP2 ADD SWAP1 SWAP3 MSTORE DUP1 SLOAD DUP4 SWAP3 SWAP2 SWAP1 DUP3 SWAP1 DUP3 SWAP1 PUSH2 0x330 SWAP1 PUSH2 0x94C JUMP JUMPDEST DUP1 PUSH1 0x1F ADD PUSH1 0x20 DUP1 SWAP2 DIV MUL PUSH1 0x20 ADD PUSH1 0x40 MLOAD SWAP1 DUP2 ADD PUSH1 0x40 MSTORE DUP1 SWAP3 SWAP2 SWAP1 DUP2 DUP2 MSTORE PUSH1 0x20 ADD DUP3 DUP1 SLOAD PUSH2 0x35C SWAP1 PUSH2 0x94C JUMP JUMPDEST DUP1 ISZERO PUSH2 0x3A7 JUMPI DUP1 PUSH1 0x1F LT PUSH2 0x37E JUMPI PUSH2 0x100 DUP1 DUP4 SLOAD DIV MUL DUP4 MSTORE SWAP2 PUSH1 0x20 ADD SWAP2 PUSH2 0x3A7 JUMP JUMPDEST DUP3 ADD SWAP2 SWAP1 PUSH0 MSTORE PUSH1 0x20 PUSH0 KECCAK256 SWAP1 JUMPDEST DUP2 SLOAD DUP2 MSTORE SWAP1 PUSH1 0x1 ADD SWAP1 PUSH1 0x20 ADD DUP1 DUP4 GT PUSH2 0x38A JUMPI DUP3 SWAP1 SUB PUSH1 0x1F AND DUP3 ADD SWAP2 JUMPDEST POP POP POP SWAP2 DUP4 MSTORE POP POP PUSH1 0x1 DUP3 ADD SLOAD PUSH1 0xFF DUP1 DUP3 AND PUSH1 0x20 DUP5 ADD MSTORE PUSH1 0x40 SWAP1 SWAP3 ADD SWAP2 PUSH2 0x100 SWAP1 SWAP2 DIV AND PUSH1 0x2 DUP2 GT ISZERO PUSH2 0x3DC JUMPI PUSH2 0x3DC PUSH2 0x7E5 JUMP JUMPDEST PUSH1 0x2 DUP2 GT ISZERO PUSH2 0x3ED JUMPI PUSH2 0x3ED PUSH2 0x7E5 JUMP JUMPDEST DUP2 MSTORE PUSH1 0x2 DUP3 ADD SLOAD PUSH1 0x20 DUP1 DUP4 ADD SWAP2 SWAP1 SWAP2 MSTORE PUSH1 0x3 DUP4 ADD SLOAD PUSH1 0x40 DUP4 ADD MSTORE PUSH1 0x4 SWAP1 SWAP3 ADD SLOAD PUSH1 0xFF AND ISZERO ISZERO PUSH1 0x60 SWAP1 SWAP2 ADD MSTORE DUP2 ADD MLOAD SWAP1 SWAP2 POP PUSH2 0x429 SWAP1 DUP5 SWAP1 PUSH2 0x984 JUMP JUMPDEST PUSH1 0xFF AND PUSH1 0x20 SWAP1 SWAP2 ADD DUP2 SWAP1 MSTORE SWAP3 SWAP2 POP POP JUMP JUMPDEST PUSH1 0x60 PUSH0 DUP1 PUSH0 DUP1 DUP6 PUSH1 0x1 PUSH1 0x1 PUSH1 0xA0 SHL SUB AND PUSH1 0x1 PUSH1 0x1 PUSH1 0xA0 SHL SUB AND DUP2 MSTORE PUSH1 0x20 ADD SWAP1 DUP2 MSTORE PUSH1 0x20 ADD PUSH0 KECCAK256 PUSH1 0x40 MLOAD DUP1 PUSH1 0xC0 ADD PUSH1 0x40 MSTORE SWAP1 DUP2 PUSH0 DUP3 ADD DUP1 SLOAD PUSH2 0x47A SWAP1 PUSH2 0x94C JUMP JUMPDEST DUP1 PUSH1 0x1F ADD PUSH1 0x20 DUP1 SWAP2 DIV MUL PUSH1 0x20 ADD PUSH1 0x40 MLOAD SWAP1 DUP2 ADD PUSH1 0x40 MSTORE DUP1 SWAP3 SWAP2 SWAP1 DUP2 DUP2 MSTORE PUSH1 0x20 ADD DUP3 DUP1 SLOAD PUSH2 0x4A6 SWAP1 PUSH2 0x94C JUMP JUMPDEST DUP1 ISZERO PUSH2 0x4F1 JUMPI DUP1 PUSH1 0x1F LT PUSH2 0x4C8 JUMPI PUSH2 0x100 DUP1 DUP4 SLOAD DIV MUL DUP4 MSTORE SWAP2 PUSH1 0x20 ADD SWAP2 PUSH2 0x4F1 JUMP JUMPDEST DUP3 ADD SWAP2 SWAP1 PUSH0 MSTORE PUSH1 0x20 PUSH0 KECCAK256 SWAP1 JUMPDEST DUP2 SLOAD DUP2 MSTORE SWAP1 PUSH1 0x1 ADD SWAP1 PUSH1 0x20 ADD DUP1 DUP4 GT PUSH2 0x4D4 JUMPI DUP3 SWAP1 SUB PUSH1 0x1F AND DUP3 ADD SWAP2 JUMPDEST POP POP POP SWAP2 DUP4 MSTORE POP POP PUSH1 0x1 DUP3 ADD SLOAD PUSH1 0xFF DUP1 DUP3 AND PUSH1 0x20 DUP5 ADD MSTORE PUSH1 0x40 SWAP1 SWAP3 ADD SWAP2 PUSH2 0x100 SWAP1 SWAP2 DIV AND PUSH1 0x2 DUP2 GT ISZERO PUSH2 0x526 JUMPI PUSH2 0x526 PUSH2 0x7E5 JUMP JUMPDEST PUSH1 0x2 DUP2 GT ISZERO PUSH2 0x537 JUMPI PUSH2 0x537 PUSH2 0x7E5 JUMP JUMPDEST DUP2 MSTORE PUSH1 0x2 DUP3 ADD SLOAD PUSH1 0x20 DUP1 DUP4 ADD SWAP2 SWAP1 SWAP2 MSTORE PUSH1 0x3 DUP4 ADD SLOAD PUSH1 0x40 DUP4 ADD MSTORE PUSH1 0x4 SWAP1 SWAP3 ADD SLOAD PUSH1 0xFF AND ISZERO ISZERO PUSH1 0x60 SWAP1 SWAP2 ADD MSTORE DUP2 MLOAD SWAP2 ADD MLOAD SWAP1 SWAP6 SWAP1 SWAP5 POP SWAP3 POP POP POP JUMP JUMPDEST PUSH1 0x1 DUP2 DUP2 SLOAD DUP2 LT PUSH2 0x581 JUMPI PUSH0 DUP1 REVERT JUMPDEST PUSH0 SWAP2 DUP3 MSTORE PUSH1 0x20 SWAP1 SWAP2 KECCAK256 ADD SLOAD PUSH1 0x1 PUSH1 0x1 PUSH1 0xA0 SHL SUB AND SWAP1 POP DUP2 JUMP JUMPDEST PUSH0 DUP1 PUSH0 PUSH2 0x5A7 DUP6 DUP6 PUSH2 0x6DA JUMP JUMPDEST SWAP2 POP SWAP2 POP DUP2 ISZERO PUSH2 0x60D JUMPI PUSH1 0x40 MLOAD PUSH3 0x461BCD PUSH1 0xE5 SHL DUP2 MSTORE PUSH1 0x20 PUSH1 0x4 DUP3 ADD MSTORE PUSH1 0x27 PUSH1 0x24 DUP3 ADD MSTORE PUSH32 0x4164646974696F6E2068617320726573756C74656420696E20616E206F766572 PUSH1 0x44 DUP3 ADD MSTORE PUSH7 0xCCD8DEEE40745 PUSH1 0xCB SHL PUSH1 0x64 DUP3 ADD MSTORE PUSH1 0x84 ADD PUSH1 0x40 MLOAD DUP1 SWAP2 SUB SWAP1 REVERT JUMPDEST SWAP2 POP POP JUMPDEST SWAP3 SWAP2 POP POP JUMP JUMPDEST PUSH0 PUSH1 0x20 DUP2 SWAP1 MSTORE SWAP1 DUP2 MSTORE PUSH1 0x40 SWAP1 KECCAK256 DUP1 SLOAD DUP2 SWAP1 PUSH2 0x631 SWAP1 PUSH2 0x94C JUMP JUMPDEST DUP1 PUSH1 0x1F ADD PUSH1 0x20 DUP1 SWAP2 DIV MUL PUSH1 0x20 ADD PUSH1 0x40 MLOAD SWAP1 DUP2 ADD PUSH1 0x40 MSTORE DUP1 SWAP3 SWAP2 SWAP1 DUP2 DUP2 MSTORE PUSH1 0x20 ADD DUP3 DUP1 SLOAD PUSH2 0x65D SWAP1 PUSH2 0x94C JUMP JUMPDEST DUP1 ISZERO PUSH2 0x6A8 JUMPI DUP1 PUSH1 0x1F LT PUSH2 0x67F JUMPI PUSH2 0x100 DUP1 DUP4 SLOAD DIV MUL DUP4 MSTORE SWAP2 PUSH1 0x20 ADD SWAP2 PUSH2 0x6A8 JUMP JUMPDEST DUP3 ADD SWAP2 SWAP1 PUSH0 MSTORE PUSH1 0x20 PUSH0 KECCAK256 SWAP1 JUMPDEST DUP2 SLOAD DUP2 MSTORE SWAP1 PUSH1 0x1 ADD SWAP1 PUSH1 0x20 ADD DUP1 DUP4 GT PUSH2 0x68B JUMPI DUP3 SWAP1 SUB PUSH1 0x1F AND DUP3 ADD SWAP2 JUMPDEST POP POP POP PUSH1 0x1 DUP5 ADD SLOAD PUSH1 0x2 DUP6 ADD SLOAD PUSH1 0x3 DUP7 ADD SLOAD PUSH1 0x4 SWAP1 SWAP7 ADD SLOAD SWAP5 SWAP6 PUSH1 0xFF DUP1 DUP5 AND SWAP7 PUSH2 0x100 SWAP1 SWAP5 DIV DUP2 AND SWAP6 POP SWAP2 SWAP4 POP SWAP2 AND DUP7 JUMP JUMPDEST PUSH0 DUP1 DUP4 DUP4 ADD DUP5 DUP2 LT ISZERO PUSH2 0x6F3 JUMPI PUSH0 DUP1 SWAP3 POP SWAP3 POP POP PUSH2 0x6FA JUMP JUMPDEST PUSH1 0x1 SWAP3 POP SWAP1 POP JUMPDEST SWAP3 POP SWAP3 SWAP1 POP JUMP JUMPDEST DUP1 CALLDATALOAD PUSH1 0xFF DUP2 AND DUP2 EQ PUSH2 0x711 JUMPI PUSH0 DUP1 REVERT JUMPDEST SWAP2 SWAP1 POP JUMP JUMPDEST PUSH0 PUSH1 0x20 DUP3 DUP5 SUB SLT ISZERO PUSH2 0x726 JUMPI PUSH0 DUP1 REVERT JUMPDEST PUSH2 0x72F DUP3 PUSH2 0x701 JUMP JUMPDEST SWAP4 SWAP3 POP POP POP JUMP JUMPDEST PUSH0 PUSH1 0x20 DUP3 DUP5 SUB SLT ISZERO PUSH2 0x746 JUMPI PUSH0 DUP1 REVERT JUMPDEST DUP2 CALLDATALOAD PUSH1 0x1 PUSH1 0x1 PUSH1 0xA0 SHL SUB DUP2 AND DUP2 EQ PUSH2 0x72F JUMPI PUSH0 DUP1 REVERT JUMPDEST PUSH0 DUP2 MLOAD DUP1 DUP5 MSTORE DUP1 PUSH1 0x20 DUP5 ADD PUSH1 0x20 DUP7 ADD MCOPY PUSH0 PUSH1 0x20 DUP3 DUP7 ADD ADD MSTORE PUSH1 0x20 PUSH1 0x1F NOT PUSH1 0x1F DUP4 ADD AND DUP6 ADD ADD SWAP2 POP POP SWAP3 SWAP2 POP POP JUMP JUMPDEST PUSH1 0x40 DUP2 MSTORE PUSH0 PUSH2 0x79C PUSH1 0x40 DUP4 ADD DUP6 PUSH2 0x75C JUMP JUMPDEST SWAP1 POP PUSH1 0xFF DUP4 AND PUSH1 0x20 DUP4 ADD MSTORE SWAP4 SWAP3 POP POP POP JUMP JUMPDEST PUSH0 PUSH1 0x20 DUP3 DUP5 SUB SLT ISZERO PUSH2 0x7BE JUMPI PUSH0 DUP1 REVERT JUMPDEST POP CALLDATALOAD SWAP2 SWAP1 POP JUMP JUMPDEST PUSH0 DUP1 PUSH1 0x40 DUP4 DUP6 SUB SLT ISZERO PUSH2 0x7D6 JUMPI PUSH0 DUP1 REVERT JUMPDEST POP POP DUP1 CALLDATALOAD SWAP3 PUSH1 0x20 SWAP1 SWAP2 ADD CALLDATALOAD SWAP2 POP JUMP JUMPDEST PUSH4 0x4E487B71 PUSH1 0xE0 SHL PUSH0 MSTORE PUSH1 0x21 PUSH1 0x4 MSTORE PUSH1 0x24 PUSH0 REVERT JUMPDEST PUSH1 0xC0 DUP2 MSTORE PUSH0 PUSH2 0x80B PUSH1 0xC0 DUP4 ADD DUP10 PUSH2 0x75C JUMP JUMPDEST SWAP1 POP PUSH1 0xFF DUP8 AND PUSH1 0x20 DUP4 ADD MSTORE PUSH1 0x3 DUP7 LT PUSH2 0x832 JUMPI PUSH4 0x4E487B71 PUSH1 0xE0 SHL PUSH0 MSTORE PUSH1 0x21 PUSH1 0x4 MSTORE PUSH1 0x24 PUSH0 REVERT JUMPDEST DUP6 PUSH1 0x40 DUP4 ADD MSTORE DUP5 PUSH1 0x60 DUP4 ADD MSTORE DUP4 PUSH1 0x80 DUP4 ADD MSTORE DUP3 ISZERO ISZERO PUSH1 0xA0 DUP4 ADD MSTORE SWAP8 SWAP7 POP POP POP POP POP POP POP JUMP JUMPDEST PUSH4 0x4E487B71 PUSH1 0xE0 SHL PUSH0 MSTORE PUSH1 0x41 PUSH1 0x4 MSTORE PUSH1 0x24 PUSH0 REVERT JUMPDEST DUP1 CALLDATALOAD PUSH1 0x3 DUP2 LT PUSH2 0x711 JUMPI PUSH0 DUP1 REVERT JUMPDEST PUSH0 DUP1 PUSH0 PUSH1 0x60 DUP5 DUP7 SUB SLT ISZERO PUSH2 0x88B JUMPI PUSH0 DUP1 REVERT JUMPDEST DUP4 CALLDATALOAD PUSH8 0xFFFFFFFFFFFFFFFF DUP2 GT ISZERO PUSH2 0x8A1 JUMPI PUSH0 DUP1 REVERT JUMPDEST DUP5 ADD PUSH1 0x1F DUP2 ADD DUP7 SGT PUSH2 0x8B1 JUMPI PUSH0 DUP1 REVERT JUMPDEST DUP1 CALLDATALOAD PUSH8 0xFFFFFFFFFFFFFFFF DUP2 GT ISZERO PUSH2 0x8CB JUMPI PUSH2 0x8CB PUSH2 0x857 JUMP JUMPDEST PUSH1 0x40 MLOAD PUSH1 0x1F DUP3 ADD PUSH1 0x1F NOT SWAP1 DUP2 AND PUSH1 0x3F ADD AND DUP2 ADD PUSH8 0xFFFFFFFFFFFFFFFF DUP2 GT DUP3 DUP3 LT OR ISZERO PUSH2 0x8FA JUMPI PUSH2 0x8FA PUSH2 0x857 JUMP JUMPDEST PUSH1 0x40 MSTORE DUP2 DUP2 MSTORE DUP3 DUP3 ADD PUSH1 0x20 ADD DUP9 LT ISZERO PUSH2 0x911 JUMPI PUSH0 DUP1 REVERT JUMPDEST DUP2 PUSH1 0x20 DUP5 ADD PUSH1 0x20 DUP4 ADD CALLDATACOPY PUSH0 PUSH1 0x20 DUP4 DUP4 ADD ADD MSTORE DUP1 SWAP6 POP POP POP POP PUSH2 0x935 PUSH1 0x20 DUP6 ADD PUSH2 0x701 JUMP JUMPDEST SWAP2 POP PUSH2 0x943 PUSH1 0x40 DUP6 ADD PUSH2 0x86B JUMP JUMPDEST SWAP1 POP SWAP3 POP SWAP3 POP SWAP3 JUMP JUMPDEST PUSH1 0x1 DUP2 DUP2 SHR SWAP1 DUP3 AND DUP1 PUSH2 0x960 JUMPI PUSH1 0x7F DUP3 AND SWAP2 POP JUMPDEST PUSH1 0x20 DUP3 LT DUP2 SUB PUSH2 0x97E JUMPI PUSH4 0x4E487B71 PUSH1 0xE0 SHL PUSH0 MSTORE PUSH1 0x22 PUSH1 0x4 MSTORE PUSH1 0x24 PUSH0 REVERT JUMPDEST POP SWAP2 SWAP1 POP JUMP JUMPDEST PUSH1 0xFF DUP2 DUP2 AND DUP4 DUP3 AND ADD SWAP1 DUP2 GT ISZERO PUSH2 0x611 JUMPI PUSH4 0x4E487B71 PUSH1 0xE0 SHL PUSH0 MSTORE PUSH1 0x11 PUSH1 0x4 MSTORE PUSH1 0x24 PUSH0 REVERT INVALID LOG2 PUSH5 0x6970667358 0x22 SLT KECCAK256 PUSH13 0xA7DE817D3EE5175424E1F0B246 0xBA PUSH13 0xAAAB81A8A3F3907A34F0E03FF0 0x2D SWAP10 SWAP11 PUSH5 0x736F6C6343 STOP ADDMOD BYTE STOP CALLER "},"gasEstimates":{"creation":{"codeDepositCost":"505400","executionCost":"infinite","totalCost":"infinite"},"external":{"":"2109","MAX_PEOPLE()":"infinite","add(uint256,uint256)":"454","addUser(string,uint8,uint8)":"infinite","getAge(uint8)":"infinite","getUserCount()":"2346","owner()":"infinite","userAddresses(uint256)":"4700","userDetails(address)":"infinite","users(address)":"infinite","withdraw()":"495"},"internal":{"_delete(address)":"infinite","_internalFunction()":"infinite"}},"methodIdentifiers":{"MAX_PEOPLE()":"0f81b49f","add(uint256,uint256)":"771602f7","addUser(string,uint8,uint8)":"d8544aea","getAge(uint8)":"47e12f8c","getUserCount()":"b5cb15f7","owner()":"8da5cb5b","userAddresses(uint256)":"502c9bd5","userDetails(address)":"48dec2a7","users(address)":"a87430ba","withdraw()":"3ccfd60b"}},"storageLayout":{"storage":[{"astId":1577,"contract":"contracts/StakingContract.sol:StakingContract","label":"users","offset":0,"slot":"0","type":"t_mapping(t_address,t_struct(User)1571_storage)"},{"astId":1580,"contract":"contracts/StakingContract.sol:StakingContract","label":"userAddresses","offset":0,"slot":"1","type":"t_array(t_address)dyn_storage"}],"types":{"t_address":{"encoding":"inplace","label":"address","numberOfBytes":"20"},"t_array(t_address)dyn_storage":{"base":"t_address","encoding":"dynamic_array","label":"address[]","numberOfBytes":"32"},"t_bool":{"encoding":"inplace","label":"bool","numberOfBytes":"1"},"t_enum(Ethnicity)1557":{"encoding":"inplace","label":"enum StakingContract.Ethnicity","numberOfBytes":"1"},"t_mapping(t_address,t_struct(User)1571_storage)":{"encoding":"mapping","key":"t_address","label":"mapping(address => struct StakingContract.User)","numberOfBytes":"32","value":"t_struct(User)1571_storage"},"t_string_storage":{"encoding":"bytes","label":"string","numberOfBytes":"32"},"t_struct(User)1571_storage":{"encoding":"inplace","label":"struct StakingContract.User","members":[{"astId":1559,"contract":"contracts/StakingContract.sol:StakingContract","label":"name","offset":0,"slot":"0","type":"t_string_storage"},{"astId":1561,"contract":"contracts/StakingContract.sol:StakingContract","label":"age","offset":0,"slot":"1","type":"t_uint8"},{"astId":1564,"contract":"contracts/StakingContract.sol:StakingContract","label":"ethnicity","offset":1,"slot":"1","type":"t_enum(Ethnicity)1557"},{"astId":1566,"contract":"contracts/StakingContract.sol:StakingContract","label":"balance","offset":0,"slot":"2","type":"t_uint256"},{"astId":1568,"contract":"contracts/StakingContract.sol:StakingContract","label":"index","offset":0,"slot":"3","type":"t_uint256"},{"astId":1570,"contract":"contracts/StakingContract.sol:StakingContract","label":"exists","offset":0,"slot":"4","type":"t_bool"}],"numberOfBytes":"160"},"t_uint256":{"encoding":"inplace","label":"uint256","numberOfBytes":"32"},"t_uint8":{"encoding":"inplace","label":"uint8","numberOfBytes":"1"}}},"userdoc":{"kind":"user","methods":{"addUser(string,uint8,uint8)":{"notice":"Function that allows users to store Ether in the smart contract"},"getAge(uint8)":{"notice":"Get the age of the calling address after x years"},"getUserCount()":{"notice":"Function returns the number of users in the smart contract"},"users(address)":{"notice":"Mappings in Solidity (mapping(address => uint256)) do not have a built-in way to check if a key exists  because all possible keys default to their zero value if not explicitly set. You can use an additional boolean mapping to track whether a key has been set"},"withdraw()":{"notice":"Function that allows the users to withdraw all the Ether they deposited in the smart contract"}},"version":1}}}}