{"contracts/StakingContract.sol":{"ExtendedSolidity":{"abi":[{"inputs":[{"internalType":"address","name":"owner","type":"address"},{"internalType":"uint256","name":"_max_people","type":"uint256"}],"stateMutability":"nonpayable","type":"constructor"},{"anonymous":false,"inputs":[{"indexed":false,"internalType":"string","name":"func","type":"string"},{"indexed":false,"internalType":"uint256","name":"gas","type":"uint256"}],"name":"Log","type":"event"},{"anonymous":false,"inputs":[{"indexed":false,"internalType":"uint256","name":"oldNumber","type":"uint256"},{"indexed":false,"internalType":"uint256","name":"newNumber","type":"uint256"}],"name":"NumberUpdated","type":"event"},{"anonymous":false,"inputs":[{"indexed":true,"internalType":"address","name":"account","type":"address"},{"indexed":false,"internalType":"string","name":"name","type":"string"},{"indexed":false,"internalType":"uint8","name":"age","type":"uint8"},{"indexed":false,"internalType":"uint256","name":"balance","type":"uint256"}],"name":"UserAdded","type":"event"},{"anonymous":false,"inputs":[{"indexed":true,"internalType":"address","name":"account","type":"address"},{"indexed":false,"internalType":"string","name":"name","type":"string"},{"indexed":false,"internalType":"uint8","name":"age","type":"uint8"},{"indexed":false,"internalType":"uint256","name":"balance","type":"uint256"}],"name":"UserWithdrew","type":"event"},{"stateMutability":"payable","type":"fallback"},{"inputs":[],"name":"MAX_PEOPLE","outputs":[{"internalType":"uint256","name":"","type":"uint256"}],"stateMutability":"view","type":"function"},{"inputs":[{"internalType":"uint256","name":"a","type":"uint256"},{"internalType":"uint256","name":"b","type":"uint256"}],"name":"add","outputs":[{"internalType":"uint256","name":"","type":"uint256"}],"stateMutability":"pure","type":"function"},{"inputs":[{"internalType":"string","name":"_name","type":"string"},{"internalType":"uint8","name":"_age","type":"uint8"},{"internalType":"enum StakingContract.Ethnicity","name":"_ethnicity","type":"uint8"}],"name":"addUser","outputs":[],"stateMutability":"payable","type":"function"},{"inputs":[{"internalType":"uint8","name":"_years","type":"uint8"}],"name":"getAge","outputs":[{"internalType":"uint8","name":"","type":"uint8"}],"stateMutability":"view","type":"function"},{"inputs":[],"name":"getInternalFunctionResult","outputs":[{"internalType":"string","name":"","type":"string"}],"stateMutability":"pure","type":"function"},{"inputs":[],"name":"getUserCount","outputs":[{"internalType":"uint256","name":"","type":"uint256"}],"stateMutability":"view","type":"function"},{"inputs":[],"name":"owner","outputs":[{"internalType":"address","name":"","type":"address"}],"stateMutability":"view","type":"function"},{"inputs":[{"internalType":"uint256","name":"","type":"uint256"}],"name":"userAddresses","outputs":[{"internalType":"address","name":"","type":"address"}],"stateMutability":"view","type":"function"},{"inputs":[{"internalType":"address","name":"_address","type":"address"}],"name":"userDetails","outputs":[{"internalType":"string","name":"name","type":"string"},{"internalType":"uint8","name":"age","type":"uint8"}],"stateMutability":"view","type":"function"},{"inputs":[{"internalType":"address","name":"","type":"address"}],"name":"users","outputs":[{"internalType":"string","name":"name","type":"string"},{"internalType":"uint8","name":"age","type":"uint8"},{"internalType":"enum StakingContract.Ethnicity","name":"ethnicity","type":"uint8"},{"internalType":"uint256","name":"balance","type":"uint256"},{"internalType":"uint256","name":"index","type":"uint256"},{"internalType":"bool","name":"exists","type":"bool"}],"stateMutability":"view","type":"function"},{"inputs":[],"name":"withdraw","outputs":[],"stateMutability":"nonpayable","type":"function"},{"stateMutability":"payable","type":"receive"}],"devdoc":{"kind":"dev","methods":{},"version":1},"evm":{"bytecode":{"linkReferences":{},"object":"60c0604052348015600e575f80fd5b50604051611325380380611325833981016040819052602b916040565b6001600160a01b0390911660805260a0526075565b5f80604083850312156050575f80fd5b82516001600160a01b03811681146065575f80fd5b6020939093015192949293505050565b60805160a05161128861009d5f395f818161016601526109c801525f61027601526112885ff3fe60806040526004361061009f575f3560e01c8063771602f711610063578063771602f7146102465780638da5cb5b14610265578063a87430ba14610298578063b5cb15f7146102c9578063d8544aea146102dd578063f48c381f146102f057610101565b80630f81b49f146101555780633ccfd60b1461019b57806347e12f8c146101b157806348dec2a7146101e2578063502c9bd51461020f57610101565b36610101577fdd970dd9b5bfe707922155b058a407655cb18288b807e2216442bca8ad83d6b55a6040516100f791906040808252600790820152667265636569766560c81b6060820152602081019190915260800190565b60405180910390a1005b7fdd970dd9b5bfe707922155b058a407655cb18288b807e2216442bca8ad83d6b55a6040516100f7919060408082526008908201526766616c6c6261636b60c01b6060820152602081019190915260800190565b348015610160575f80fd5b506101887f000000000000000000000000000000000000000000000000000000000000000081565b6040519081526020015b60405180910390f35b3480156101a6575f80fd5b506101af610311565b005b3480156101bc575f80fd5b506101d06101cb366004610e0f565b610552565b60405160ff9091168152602001610192565b3480156101ed575f80fd5b506102016101fc366004610e2f565b610687565b604051610192929190610e83565b34801561021a575f80fd5b5061022e610229366004610ea7565b6107bf565b6040516001600160a01b039091168152602001610192565b348015610251575f80fd5b50610188610260366004610ebe565b6107e7565b348015610270575f80fd5b5061022e7f000000000000000000000000000000000000000000000000000000000000000081565b3480156102a3575f80fd5b506102b76102b2366004610e2f565b610860565b60405161019296959493929190610ef2565b3480156102d4575f80fd5b50600154610188565b6101af6102eb366004610f72565b610923565b3480156102fb575f80fd5b50610304610b89565b6040516101929190611045565b5f5c1561031c575f80fd5b60015f5d335f908152602081905260409020600201548061037d5760405162461bcd60e51b81526020600482015260166024820152754e6f2062616c616e636520746f20776974686472617760501b60448201526064015b60405180910390fd5b335f908152602081905260408120805461039690611057565b80601f01602080910402602001604051908101604052809291908181526020018280546103c290611057565b801561040d5780601f106103e45761010080835404028352916020019161040d565b820191905f5260205f20905b8154815290600101906020018083116103f057829003601f168201915b5050505050905061043c81604051602001610428919061108f565b604051602081830303815290604052610bca565b335f818152602081905260408082206002018290555190919084908381818185875af1925050503d805f811461048d576040519150601f19603f3d011682016040523d82523d5f602084013e610492565b606091505b50509050610500816104cd57604051806040016040528060118152602001701dda5d1a191c985dd85b0819985a5b1959607a1b815250610bca565b604051806040016040528060158152602001741dda5d1a191c985dd85b081cdd58d8d95cdcd99d5b605a1b815250610bca565b806105415760405162461bcd60e51b815260206004820152601160248201527015da5d1a191c985dd85b0819985a5b1959607a1b6044820152606401610374565b61054a33610c10565b5050505f805d565b335f90815260208190526040808220815160c081019092528054839291908290829061057d90611057565b80601f01602080910402602001604051908101604052809291908181526020018280546105a990611057565b80156105f45780601f106105cb576101008083540402835291602001916105f4565b820191905f5260205f20905b8154815290600101906020018083116105d757829003601f168201915b5050509183525050600182015460ff808216602084015260409092019161010090910416600281111561062957610629610ede565b600281111561063a5761063a610ede565b815260028201546020808301919091526003830154604083015260049092015460ff1615156060909101528101519091506106769084906110d0565b60ff16602090910181905292915050565b60605f805f80856001600160a01b03166001600160a01b031681526020019081526020015f206040518060c00160405290815f820180546106c790611057565b80601f01602080910402602001604051908101604052809291908181526020018280546106f390611057565b801561073e5780601f106107155761010080835404028352916020019161073e565b820191905f5260205f20905b81548152906001019060200180831161072157829003601f168201915b5050509183525050600182015460ff808216602084015260409092019161010090910416600281111561077357610773610ede565b600281111561078457610784610ede565b815260028201546020808301919091526003830154604083015260049092015460ff1615156060909101528151910151909590945092505050565b600181815481106107ce575f80fd5b5f918252602090912001546001600160a01b0316905081565b5f805f6107f48585610d66565b9150915081156108565760405162461bcd60e51b815260206004820152602760248201527f4164646974696f6e2068617320726573756c74656420696e20616e206f7665726044820152660ccd8deee4074560cb1b6064820152608401610374565b9150505b92915050565b5f6020819052908152604090208054819061087a90611057565b80601f01602080910402602001604051908101604052809291908181526020018280546108a690611057565b80156108f15780601f106108c8576101008083540402835291602001916108f1565b820191905f5260205f20905b8154815290600101906020018083116108d457829003601f168201915b505050600184015460028501546003860154600490960154949560ff8084169661010090940481169550919350911686565b5f341161096b5760405162461bcd60e51b81526020600482015260166024820152750546865207374616b696e672076616c756520697320360541b6044820152606401610374565b335f9081526020819052604090206004015460ff16156109c35760405162461bcd60e51b81526020600482015260136024820152725573657220616c72656164792065786973747360681b6044820152606401610374565b6001547f000000000000000000000000000000000000000000000000000000000000000011610a345760405162461bcd60e51b815260206004820152601d60248201527f557365727320617265206f76657220746865206c696d6974206f6620320000006044820152606401610374565b6001805480820182555f919091527fb10e2d527612073b26eecdfd717e6a320cf44b4afac2b0732d9fcbe2b7fa0cf6810180546001600160a01b031916331790556040805160c08101825285815260ff85166020820152908101836002811115610aa057610aa0610ede565b81523460208083019190915260408083018590526001606090930192909252335f908152908190522081518190610ad79082611135565b50602082015160018201805460ff90921660ff1983168117825560408501519261ffff191617610100836002811115610b1257610b12610ede565b0217905550606082015160028201556080820151600382015560a0909101516004909101805460ff191691151591909117905560405133907f33f82d58f818823082046825ebb4c7cdfc4719ad86c8065c012f2214c6e8726090610b7b908790879034906111f0565b60405180910390a250505050565b6060610bc560408051808201909152601881527f496e7465726e616c2066756e6374696f6e2063616c6c65640000000000000000602082015290565b905090565b610c0d81604051602401610bde9190611045565b60408051601f198184030181529190526020810180516001600160e01b031663104c13eb60e21b179052610d8d565b50565b6001600160a01b0381165f9081526020819052604090206004015460ff16610c355750565b6001600160a01b0381165f9081526020819052604081206003015460018054919291610c619190611217565b9050808214610ce8575f60018281548110610c7e57610c7e61122a565b5f91825260209091200154600180546001600160a01b039092169250829185908110610cac57610cac61122a565b5f91825260208083209190910180546001600160a01b0319166001600160a01b0394851617905592909116815290819052604090206003018290555b6001805480610cf957610cf961123e565b5f828152602080822083015f1990810180546001600160a01b03191690559092019092556001600160a01b03851682528190526040812090610d3b8282610db0565b5060018101805461ffff191690555f600282018190556003820155600401805460ff19169055505050565b5f8083830184811015610d7f575f809250925050610d86565b6001925090505b9250929050565b610c0d815f6a636f6e736f6c652e6c6f6790505f80835160208501845afa505050565b508054610dbc90611057565b5f825580601f10610dcb575050565b601f0160209004905f5260205f2090810190610c0d91905b80821115610df6575f8155600101610de3565b5090565b803560ff81168114610e0a575f80fd5b919050565b5f60208284031215610e1f575f80fd5b610e2882610dfa565b9392505050565b5f60208284031215610e3f575f80fd5b81356001600160a01b0381168114610e28575f80fd5b5f81518084528060208401602086015e5f602082860101526020601f19601f83011685010191505092915050565b604081525f610e956040830185610e55565b905060ff831660208301529392505050565b5f60208284031215610eb7575f80fd5b5035919050565b5f8060408385031215610ecf575f80fd5b50508035926020909101359150565b634e487b7160e01b5f52602160045260245ffd5b60c081525f610f0460c0830189610e55565b905060ff8716602083015260038610610f2b57634e487b7160e01b5f52602160045260245ffd5b85604083015284606083015283608083015282151560a0830152979650505050505050565b634e487b7160e01b5f52604160045260245ffd5b803560038110610e0a575f80fd5b5f805f60608486031215610f84575f80fd5b833567ffffffffffffffff811115610f9a575f80fd5b8401601f81018613610faa575f80fd5b803567ffffffffffffffff811115610fc457610fc4610f50565b604051601f8201601f19908116603f0116810167ffffffffffffffff81118282101715610ff357610ff3610f50565b60405281815282820160200188101561100a575f80fd5b816020840160208301375f6020838301015280955050505061102e60208501610dfa565b915061103c60408501610f64565b90509250925092565b602081525f610e286020830184610e55565b600181811c9082168061106b57607f821691505b60208210810361108957634e487b7160e01b5f52602260045260245ffd5b50919050565b5f82518060208501845e700101e169f103bb4ba34323930bbb4b7339607d1b920191825250601101919050565b634e487b7160e01b5f52601160045260245ffd5b60ff818116838216019081111561085a5761085a6110bc565b601f82111561113057805f5260205f20601f840160051c8101602085101561110e5750805b601f840160051c820191505b8181101561112d575f815560010161111a565b50505b505050565b815167ffffffffffffffff81111561114f5761114f610f50565b6111638161115d8454611057565b846110e9565b6020601f821160018114611195575f831561117e5750848201515b5f19600385901b1c1916600184901b17845561112d565b5f84815260208120601f198516915b828110156111c457878501518255602094850194600190920191016111a4565b50848210156111e157868401515f19600387901b60f8161c191681555b50505050600190811b01905550565b606081525f6112026060830186610e55565b60ff9490941660208301525060400152919050565b8181038181111561085a5761085a6110bc565b634e487b7160e01b5f52603260045260245ffd5b634e487b7160e01b5f52603160045260245ffdfea2646970667358221220c75b7a22d81a9a6b73e6f92a6c90feb5e4bcd8e4ed4686bba260d8d9eba34eb264736f6c634300081a0033","opcodes":"PUSH1 0xC0 PUSH1 0x40 MSTORE CALLVALUE DUP1 ISZERO PUSH1 0xE JUMPI PUSH0 DUP1 REVERT JUMPDEST POP PUSH1 0x40 MLOAD PUSH2 0x1325 CODESIZE SUB DUP1 PUSH2 0x1325 DUP4 CODECOPY DUP2 ADD PUSH1 0x40 DUP2 SWAP1 MSTORE PUSH1 0x2B SWAP2 PUSH1 0x40 JUMP JUMPDEST PUSH1 0x1 PUSH1 0x1 PUSH1 0xA0 SHL SUB SWAP1 SWAP2 AND PUSH1 0x80 MSTORE PUSH1 0xA0 MSTORE PUSH1 0x75 JUMP JUMPDEST PUSH0 DUP1 PUSH1 0x40 DUP4 DUP6 SUB SLT ISZERO PUSH1 0x50 JUMPI PUSH0 DUP1 REVERT JUMPDEST DUP3 MLOAD PUSH1 0x1 PUSH1 0x1 PUSH1 0xA0 SHL SUB DUP2 AND DUP2 EQ PUSH1 0x65 JUMPI PUSH0 DUP1 REVERT JUMPDEST PUSH1 0x20 SWAP4 SWAP1 SWAP4 ADD MLOAD SWAP3 SWAP5 SWAP3 SWAP4 POP POP POP JUMP JUMPDEST PUSH1 0x80 MLOAD PUSH1 0xA0 MLOAD PUSH2 0x1288 PUSH2 0x9D PUSH0 CODECOPY PUSH0 DUP2 DUP2 PUSH2 0x166 ADD MSTORE PUSH2 0x9C8 ADD MSTORE PUSH0 PUSH2 0x276 ADD MSTORE PUSH2 0x1288 PUSH0 RETURN INVALID PUSH1 0x80 PUSH1 0x40 MSTORE PUSH1 0x4 CALLDATASIZE LT PUSH2 0x9F JUMPI PUSH0 CALLDATALOAD PUSH1 0xE0 SHR DUP1 PUSH4 0x771602F7 GT PUSH2 0x63 JUMPI DUP1 PUSH4 0x771602F7 EQ PUSH2 0x246 JUMPI DUP1 PUSH4 0x8DA5CB5B EQ PUSH2 0x265 JUMPI DUP1 PUSH4 0xA87430BA EQ PUSH2 0x298 JUMPI DUP1 PUSH4 0xB5CB15F7 EQ PUSH2 0x2C9 JUMPI DUP1 PUSH4 0xD8544AEA EQ PUSH2 0x2DD JUMPI DUP1 PUSH4 0xF48C381F EQ PUSH2 0x2F0 JUMPI PUSH2 0x101 JUMP JUMPDEST DUP1 PUSH4 0xF81B49F EQ PUSH2 0x155 JUMPI DUP1 PUSH4 0x3CCFD60B EQ PUSH2 0x19B JUMPI DUP1 PUSH4 0x47E12F8C EQ PUSH2 0x1B1 JUMPI DUP1 PUSH4 0x48DEC2A7 EQ PUSH2 0x1E2 JUMPI DUP1 PUSH4 0x502C9BD5 EQ PUSH2 0x20F JUMPI PUSH2 0x101 JUMP JUMPDEST CALLDATASIZE PUSH2 0x101 JUMPI PUSH32 0xDD970DD9B5BFE707922155B058A407655CB18288B807E2216442BCA8AD83D6B5 GAS PUSH1 0x40 MLOAD PUSH2 0xF7 SWAP2 SWAP1 PUSH1 0x40 DUP1 DUP3 MSTORE PUSH1 0x7 SWAP1 DUP3 ADD MSTORE PUSH7 0x72656365697665 PUSH1 0xC8 SHL PUSH1 0x60 DUP3 ADD MSTORE PUSH1 0x20 DUP2 ADD SWAP2 SWAP1 SWAP2 MSTORE PUSH1 0x80 ADD SWAP1 JUMP JUMPDEST PUSH1 0x40 MLOAD DUP1 SWAP2 SUB SWAP1 LOG1 STOP JUMPDEST PUSH32 0xDD970DD9B5BFE707922155B058A407655CB18288B807E2216442BCA8AD83D6B5 GAS PUSH1 0x40 MLOAD PUSH2 0xF7 SWAP2 SWAP1 PUSH1 0x40 DUP1 DUP3 MSTORE PUSH1 0x8 SWAP1 DUP3 ADD MSTORE PUSH8 0x66616C6C6261636B PUSH1 0xC0 SHL PUSH1 0x60 DUP3 ADD MSTORE PUSH1 0x20 DUP2 ADD SWAP2 SWAP1 SWAP2 MSTORE PUSH1 0x80 ADD SWAP1 JUMP JUMPDEST CALLVALUE DUP1 ISZERO PUSH2 0x160 JUMPI PUSH0 DUP1 REVERT JUMPDEST POP PUSH2 0x188 PUSH32 0x0 DUP2 JUMP JUMPDEST PUSH1 0x40 MLOAD SWAP1 DUP2 MSTORE PUSH1 0x20 ADD JUMPDEST PUSH1 0x40 MLOAD DUP1 SWAP2 SUB SWAP1 RETURN JUMPDEST CALLVALUE DUP1 ISZERO PUSH2 0x1A6 JUMPI PUSH0 DUP1 REVERT JUMPDEST POP PUSH2 0x1AF PUSH2 0x311 JUMP JUMPDEST STOP JUMPDEST CALLVALUE DUP1 ISZERO PUSH2 0x1BC JUMPI PUSH0 DUP1 REVERT JUMPDEST POP PUSH2 0x1D0 PUSH2 0x1CB CALLDATASIZE PUSH1 0x4 PUSH2 0xE0F JUMP JUMPDEST PUSH2 0x552 JUMP JUMPDEST PUSH1 0x40 MLOAD PUSH1 0xFF SWAP1 SWAP2 AND DUP2 MSTORE PUSH1 0x20 ADD PUSH2 0x192 JUMP JUMPDEST CALLVALUE DUP1 ISZERO PUSH2 0x1ED JUMPI PUSH0 DUP1 REVERT JUMPDEST POP PUSH2 0x201 PUSH2 0x1FC CALLDATASIZE PUSH1 0x4 PUSH2 0xE2F JUMP JUMPDEST PUSH2 0x687 JUMP JUMPDEST PUSH1 0x40 MLOAD PUSH2 0x192 SWAP3 SWAP2 SWAP1 PUSH2 0xE83 JUMP JUMPDEST CALLVALUE DUP1 ISZERO PUSH2 0x21A JUMPI PUSH0 DUP1 REVERT JUMPDEST POP PUSH2 0x22E PUSH2 0x229 CALLDATASIZE PUSH1 0x4 PUSH2 0xEA7 JUMP JUMPDEST PUSH2 0x7BF JUMP JUMPDEST PUSH1 0x40 MLOAD PUSH1 0x1 PUSH1 0x1 PUSH1 0xA0 SHL SUB SWAP1 SWAP2 AND DUP2 MSTORE PUSH1 0x20 ADD PUSH2 0x192 JUMP JUMPDEST CALLVALUE DUP1 ISZERO PUSH2 0x251 JUMPI PUSH0 DUP1 REVERT JUMPDEST POP PUSH2 0x188 PUSH2 0x260 CALLDATASIZE PUSH1 0x4 PUSH2 0xEBE JUMP JUMPDEST PUSH2 0x7E7 JUMP JUMPDEST CALLVALUE DUP1 ISZERO PUSH2 0x270 JUMPI PUSH0 DUP1 REVERT JUMPDEST POP PUSH2 0x22E PUSH32 0x0 DUP2 JUMP JUMPDEST CALLVALUE DUP1 ISZERO PUSH2 0x2A3 JUMPI PUSH0 DUP1 REVERT JUMPDEST POP PUSH2 0x2B7 PUSH2 0x2B2 CALLDATASIZE PUSH1 0x4 PUSH2 0xE2F JUMP JUMPDEST PUSH2 0x860 JUMP JUMPDEST PUSH1 0x40 MLOAD PUSH2 0x192 SWAP7 SWAP6 SWAP5 SWAP4 SWAP3 SWAP2 SWAP1 PUSH2 0xEF2 JUMP JUMPDEST CALLVALUE DUP1 ISZERO PUSH2 0x2D4 JUMPI PUSH0 DUP1 REVERT JUMPDEST POP PUSH1 0x1 SLOAD PUSH2 0x188 JUMP JUMPDEST PUSH2 0x1AF PUSH2 0x2EB CALLDATASIZE PUSH1 0x4 PUSH2 0xF72 JUMP JUMPDEST PUSH2 0x923 JUMP JUMPDEST CALLVALUE DUP1 ISZERO PUSH2 0x2FB JUMPI PUSH0 DUP1 REVERT JUMPDEST POP PUSH2 0x304 PUSH2 0xB89 JUMP JUMPDEST PUSH1 0x40 MLOAD PUSH2 0x192 SWAP2 SWAP1 PUSH2 0x1045 JUMP JUMPDEST PUSH0 TLOAD ISZERO PUSH2 0x31C JUMPI PUSH0 DUP1 REVERT JUMPDEST PUSH1 0x1 PUSH0 TSTORE CALLER PUSH0 SWAP1 DUP2 MSTORE PUSH1 0x20 DUP2 SWAP1 MSTORE PUSH1 0x40 SWAP1 KECCAK256 PUSH1 0x2 ADD SLOAD DUP1 PUSH2 0x37D JUMPI PUSH1 0x40 MLOAD PUSH3 0x461BCD PUSH1 0xE5 SHL DUP2 MSTORE PUSH1 0x20 PUSH1 0x4 DUP3 ADD MSTORE PUSH1 0x16 PUSH1 0x24 DUP3 ADD MSTORE PUSH22 0x4E6F2062616C616E636520746F207769746864726177 PUSH1 0x50 SHL PUSH1 0x44 DUP3 ADD MSTORE PUSH1 0x64 ADD JUMPDEST PUSH1 0x40 MLOAD DUP1 SWAP2 SUB SWAP1 REVERT JUMPDEST CALLER PUSH0 SWAP1 DUP2 MSTORE PUSH1 0x20 DUP2 SWAP1 MSTORE PUSH1 0x40 DUP2 KECCAK256 DUP1 SLOAD PUSH2 0x396 SWAP1 PUSH2 0x1057 JUMP JUMPDEST DUP1 PUSH1 0x1F ADD PUSH1 0x20 DUP1 SWAP2 DIV MUL PUSH1 0x20 ADD PUSH1 0x40 MLOAD SWAP1 DUP2 ADD PUSH1 0x40 MSTORE DUP1 SWAP3 SWAP2 SWAP1 DUP2 DUP2 MSTORE PUSH1 0x20 ADD DUP3 DUP1 SLOAD PUSH2 0x3C2 SWAP1 PUSH2 0x1057 JUMP JUMPDEST DUP1 ISZERO PUSH2 0x40D JUMPI DUP1 PUSH1 0x1F LT PUSH2 0x3E4 JUMPI PUSH2 0x100 DUP1 DUP4 SLOAD DIV MUL DUP4 MSTORE SWAP2 PUSH1 0x20 ADD SWAP2 PUSH2 0x40D JUMP JUMPDEST DUP3 ADD SWAP2 SWAP1 PUSH0 MSTORE PUSH1 0x20 PUSH0 KECCAK256 SWAP1 JUMPDEST DUP2 SLOAD DUP2 MSTORE SWAP1 PUSH1 0x1 ADD SWAP1 PUSH1 0x20 ADD DUP1 DUP4 GT PUSH2 0x3F0 JUMPI DUP3 SWAP1 SUB PUSH1 0x1F AND DUP3 ADD SWAP2 JUMPDEST POP POP POP POP POP SWAP1 POP PUSH2 0x43C DUP2 PUSH1 0x40 MLOAD PUSH1 0x20 ADD PUSH2 0x428 SWAP2 SWAP1 PUSH2 0x108F JUMP JUMPDEST PUSH1 0x40 MLOAD PUSH1 0x20 DUP2 DUP4 SUB SUB DUP2 MSTORE SWAP1 PUSH1 0x40 MSTORE PUSH2 0xBCA JUMP JUMPDEST CALLER PUSH0 DUP2 DUP2 MSTORE PUSH1 0x20 DUP2 SWAP1 MSTORE PUSH1 0x40 DUP1 DUP3 KECCAK256 PUSH1 0x2 ADD DUP3 SWAP1 SSTORE MLOAD SWAP1 SWAP2 SWAP1 DUP5 SWAP1 DUP4 DUP2 DUP2 DUP2 DUP6 DUP8 GAS CALL SWAP3 POP POP POP RETURNDATASIZE DUP1 PUSH0 DUP2 EQ PUSH2 0x48D JUMPI PUSH1 0x40 MLOAD SWAP2 POP PUSH1 0x1F NOT PUSH1 0x3F RETURNDATASIZE ADD AND DUP3 ADD PUSH1 0x40 MSTORE RETURNDATASIZE DUP3 MSTORE RETURNDATASIZE PUSH0 PUSH1 0x20 DUP5 ADD RETURNDATACOPY PUSH2 0x492 JUMP JUMPDEST PUSH1 0x60 SWAP2 POP JUMPDEST POP POP SWAP1 POP PUSH2 0x500 DUP2 PUSH2 0x4CD JUMPI PUSH1 0x40 MLOAD DUP1 PUSH1 0x40 ADD PUSH1 0x40 MSTORE DUP1 PUSH1 0x11 DUP2 MSTORE PUSH1 0x20 ADD PUSH17 0x1DDA5D1A191C985DD85B0819985A5B1959 PUSH1 0x7A SHL DUP2 MSTORE POP PUSH2 0xBCA JUMP JUMPDEST PUSH1 0x40 MLOAD DUP1 PUSH1 0x40 ADD PUSH1 0x40 MSTORE DUP1 PUSH1 0x15 DUP2 MSTORE PUSH1 0x20 ADD PUSH21 0x1DDA5D1A191C985DD85B081CDD58D8D95CDCD99D5B PUSH1 0x5A SHL DUP2 MSTORE POP PUSH2 0xBCA JUMP JUMPDEST DUP1 PUSH2 0x541 JUMPI PUSH1 0x40 MLOAD PUSH3 0x461BCD PUSH1 0xE5 SHL DUP2 MSTORE PUSH1 0x20 PUSH1 0x4 DUP3 ADD MSTORE PUSH1 0x11 PUSH1 0x24 DUP3 ADD MSTORE PUSH17 0x15DA5D1A191C985DD85B0819985A5B1959 PUSH1 0x7A SHL PUSH1 0x44 DUP3 ADD MSTORE PUSH1 0x64 ADD PUSH2 0x374 JUMP JUMPDEST PUSH2 0x54A CALLER PUSH2 0xC10 JUMP JUMPDEST POP POP POP PUSH0 DUP1 TSTORE JUMP JUMPDEST CALLER PUSH0 SWAP1 DUP2 MSTORE PUSH1 0x20 DUP2 SWAP1 MSTORE PUSH1 0x40 DUP1 DUP3 KECCAK256 DUP2 MLOAD PUSH1 0xC0 DUP2 ADD SWAP1 SWAP3 MSTORE DUP1 SLOAD DUP4 SWAP3 SWAP2 SWAP1 DUP3 SWAP1 DUP3 SWAP1 PUSH2 0x57D SWAP1 PUSH2 0x1057 JUMP JUMPDEST DUP1 PUSH1 0x1F ADD PUSH1 0x20 DUP1 SWAP2 DIV MUL PUSH1 0x20 ADD PUSH1 0x40 MLOAD SWAP1 DUP2 ADD PUSH1 0x40 MSTORE DUP1 SWAP3 SWAP2 SWAP1 DUP2 DUP2 MSTORE PUSH1 0x20 ADD DUP3 DUP1 SLOAD PUSH2 0x5A9 SWAP1 PUSH2 0x1057 JUMP JUMPDEST DUP1 ISZERO PUSH2 0x5F4 JUMPI DUP1 PUSH1 0x1F LT PUSH2 0x5CB JUMPI PUSH2 0x100 DUP1 DUP4 SLOAD DIV MUL DUP4 MSTORE SWAP2 PUSH1 0x20 ADD SWAP2 PUSH2 0x5F4 JUMP JUMPDEST DUP3 ADD SWAP2 SWAP1 PUSH0 MSTORE PUSH1 0x20 PUSH0 KECCAK256 SWAP1 JUMPDEST DUP2 SLOAD DUP2 MSTORE SWAP1 PUSH1 0x1 ADD SWAP1 PUSH1 0x20 ADD DUP1 DUP4 GT PUSH2 0x5D7 JUMPI DUP3 SWAP1 SUB PUSH1 0x1F AND DUP3 ADD SWAP2 JUMPDEST POP POP POP SWAP2 DUP4 MSTORE POP POP PUSH1 0x1 DUP3 ADD SLOAD PUSH1 0xFF DUP1 DUP3 AND PUSH1 0x20 DUP5 ADD MSTORE PUSH1 0x40 SWAP1 SWAP3 ADD SWAP2 PUSH2 0x100 SWAP1 SWAP2 DIV AND PUSH1 0x2 DUP2 GT ISZERO PUSH2 0x629 JUMPI PUSH2 0x629 PUSH2 0xEDE JUMP JUMPDEST PUSH1 0x2 DUP2 GT ISZERO PUSH2 0x63A JUMPI PUSH2 0x63A PUSH2 0xEDE JUMP JUMPDEST DUP2 MSTORE PUSH1 0x2 DUP3 ADD SLOAD PUSH1 0x20 DUP1 DUP4 ADD SWAP2 SWAP1 SWAP2 MSTORE PUSH1 0x3 DUP4 ADD SLOAD PUSH1 0x40 DUP4 ADD MSTORE PUSH1 0x4 SWAP1 SWAP3 ADD SLOAD PUSH1 0xFF AND ISZERO ISZERO PUSH1 0x60 SWAP1 SWAP2 ADD MSTORE DUP2 ADD MLOAD SWAP1 SWAP2 POP PUSH2 0x676 SWAP1 DUP5 SWAP1 PUSH2 0x10D0 JUMP JUMPDEST PUSH1 0xFF AND PUSH1 0x20 SWAP1 SWAP2 ADD DUP2 SWAP1 MSTORE SWAP3 SWAP2 POP POP JUMP JUMPDEST PUSH1 0x60 PUSH0 DUP1 PUSH0 DUP1 DUP6 PUSH1 0x1 PUSH1 0x1 PUSH1 0xA0 SHL SUB AND PUSH1 0x1 PUSH1 0x1 PUSH1 0xA0 SHL SUB AND DUP2 MSTORE PUSH1 0x20 ADD SWAP1 DUP2 MSTORE PUSH1 0x20 ADD PUSH0 KECCAK256 PUSH1 0x40 MLOAD DUP1 PUSH1 0xC0 ADD PUSH1 0x40 MSTORE SWAP1 DUP2 PUSH0 DUP3 ADD DUP1 SLOAD PUSH2 0x6C7 SWAP1 PUSH2 0x1057 JUMP JUMPDEST DUP1 PUSH1 0x1F ADD PUSH1 0x20 DUP1 SWAP2 DIV MUL PUSH1 0x20 ADD PUSH1 0x40 MLOAD SWAP1 DUP2 ADD PUSH1 0x40 MSTORE DUP1 SWAP3 SWAP2 SWAP1 DUP2 DUP2 MSTORE PUSH1 0x20 ADD DUP3 DUP1 SLOAD PUSH2 0x6F3 SWAP1 PUSH2 0x1057 JUMP JUMPDEST DUP1 ISZERO PUSH2 0x73E JUMPI DUP1 PUSH1 0x1F LT PUSH2 0x715 JUMPI PUSH2 0x100 DUP1 DUP4 SLOAD DIV MUL DUP4 MSTORE SWAP2 PUSH1 0x20 ADD SWAP2 PUSH2 0x73E JUMP JUMPDEST DUP3 ADD SWAP2 SWAP1 PUSH0 MSTORE PUSH1 0x20 PUSH0 KECCAK256 SWAP1 JUMPDEST DUP2 SLOAD DUP2 MSTORE SWAP1 PUSH1 0x1 ADD SWAP1 PUSH1 0x20 ADD DUP1 DUP4 GT PUSH2 0x721 JUMPI DUP3 SWAP1 SUB PUSH1 0x1F AND DUP3 ADD SWAP2 JUMPDEST POP POP POP SWAP2 DUP4 MSTORE POP POP PUSH1 0x1 DUP3 ADD SLOAD PUSH1 0xFF DUP1 DUP3 AND PUSH1 0x20 DUP5 ADD MSTORE PUSH1 0x40 SWAP1 SWAP3 ADD SWAP2 PUSH2 0x100 SWAP1 SWAP2 DIV AND PUSH1 0x2 DUP2 GT ISZERO PUSH2 0x773 JUMPI PUSH2 0x773 PUSH2 0xEDE JUMP JUMPDEST PUSH1 0x2 DUP2 GT ISZERO PUSH2 0x784 JUMPI PUSH2 0x784 PUSH2 0xEDE JUMP JUMPDEST DUP2 MSTORE PUSH1 0x2 DUP3 ADD SLOAD PUSH1 0x20 DUP1 DUP4 ADD SWAP2 SWAP1 SWAP2 MSTORE PUSH1 0x3 DUP4 ADD SLOAD PUSH1 0x40 DUP4 ADD MSTORE PUSH1 0x4 SWAP1 SWAP3 ADD SLOAD PUSH1 0xFF AND ISZERO ISZERO PUSH1 0x60 SWAP1 SWAP2 ADD MSTORE DUP2 MLOAD SWAP2 ADD MLOAD SWAP1 SWAP6 SWAP1 SWAP5 POP SWAP3 POP POP POP JUMP JUMPDEST PUSH1 0x1 DUP2 DUP2 SLOAD DUP2 LT PUSH2 0x7CE JUMPI PUSH0 DUP1 REVERT JUMPDEST PUSH0 SWAP2 DUP3 MSTORE PUSH1 0x20 SWAP1 SWAP2 KECCAK256 ADD SLOAD PUSH1 0x1 PUSH1 0x1 PUSH1 0xA0 SHL SUB AND SWAP1 POP DUP2 JUMP JUMPDEST PUSH0 DUP1 PUSH0 PUSH2 0x7F4 DUP6 DUP6 PUSH2 0xD66 JUMP JUMPDEST SWAP2 POP SWAP2 POP DUP2 ISZERO PUSH2 0x856 JUMPI PUSH1 0x40 MLOAD PUSH3 0x461BCD PUSH1 0xE5 SHL DUP2 MSTORE PUSH1 0x20 PUSH1 0x4 DUP3 ADD MSTORE PUSH1 0x27 PUSH1 0x24 DUP3 ADD MSTORE PUSH32 0x4164646974696F6E2068617320726573756C74656420696E20616E206F766572 PUSH1 0x44 DUP3 ADD MSTORE PUSH7 0xCCD8DEEE40745 PUSH1 0xCB SHL PUSH1 0x64 DUP3 ADD MSTORE PUSH1 0x84 ADD PUSH2 0x374 JUMP JUMPDEST SWAP2 POP POP JUMPDEST SWAP3 SWAP2 POP POP JUMP JUMPDEST PUSH0 PUSH1 0x20 DUP2 SWAP1 MSTORE SWAP1 DUP2 MSTORE PUSH1 0x40 SWAP1 KECCAK256 DUP1 SLOAD DUP2 SWAP1 PUSH2 0x87A SWAP1 PUSH2 0x1057 JUMP JUMPDEST DUP1 PUSH1 0x1F ADD PUSH1 0x20 DUP1 SWAP2 DIV MUL PUSH1 0x20 ADD PUSH1 0x40 MLOAD SWAP1 DUP2 ADD PUSH1 0x40 MSTORE DUP1 SWAP3 SWAP2 SWAP1 DUP2 DUP2 MSTORE PUSH1 0x20 ADD DUP3 DUP1 SLOAD PUSH2 0x8A6 SWAP1 PUSH2 0x1057 JUMP JUMPDEST DUP1 ISZERO PUSH2 0x8F1 JUMPI DUP1 PUSH1 0x1F LT PUSH2 0x8C8 JUMPI PUSH2 0x100 DUP1 DUP4 SLOAD DIV MUL DUP4 MSTORE SWAP2 PUSH1 0x20 ADD SWAP2 PUSH2 0x8F1 JUMP JUMPDEST DUP3 ADD SWAP2 SWAP1 PUSH0 MSTORE PUSH1 0x20 PUSH0 KECCAK256 SWAP1 JUMPDEST DUP2 SLOAD DUP2 MSTORE SWAP1 PUSH1 0x1 ADD SWAP1 PUSH1 0x20 ADD DUP1 DUP4 GT PUSH2 0x8D4 JUMPI DUP3 SWAP1 SUB PUSH1 0x1F AND DUP3 ADD SWAP2 JUMPDEST POP POP POP PUSH1 0x1 DUP5 ADD SLOAD PUSH1 0x2 DUP6 ADD SLOAD PUSH1 0x3 DUP7 ADD SLOAD PUSH1 0x4 SWAP1 SWAP7 ADD SLOAD SWAP5 SWAP6 PUSH1 0xFF DUP1 DUP5 AND SWAP7 PUSH2 0x100 SWAP1 SWAP5 DIV DUP2 AND SWAP6 POP SWAP2 SWAP4 POP SWAP2 AND DUP7 JUMP JUMPDEST PUSH0 CALLVALUE GT PUSH2 0x96B JUMPI PUSH1 0x40 MLOAD PUSH3 0x461BCD PUSH1 0xE5 SHL DUP2 MSTORE PUSH1 0x20 PUSH1 0x4 DUP3 ADD MSTORE PUSH1 0x16 PUSH1 0x24 DUP3 ADD MSTORE PUSH22 0x546865207374616B696E672076616C7565206973203 PUSH1 0x54 SHL PUSH1 0x44 DUP3 ADD MSTORE PUSH1 0x64 ADD PUSH2 0x374 JUMP JUMPDEST CALLER PUSH0 SWAP1 DUP2 MSTORE PUSH1 0x20 DUP2 SWAP1 MSTORE PUSH1 0x40 SWAP1 KECCAK256 PUSH1 0x4 ADD SLOAD PUSH1 0xFF AND ISZERO PUSH2 0x9C3 JUMPI PUSH1 0x40 MLOAD PUSH3 0x461BCD PUSH1 0xE5 SHL DUP2 MSTORE PUSH1 0x20 PUSH1 0x4 DUP3 ADD MSTORE PUSH1 0x13 PUSH1 0x24 DUP3 ADD MSTORE PUSH19 0x5573657220616C726561647920657869737473 PUSH1 0x68 SHL PUSH1 0x44 DUP3 ADD MSTORE PUSH1 0x64 ADD PUSH2 0x374 JUMP JUMPDEST PUSH1 0x1 SLOAD PUSH32 0x0 GT PUSH2 0xA34 JUMPI PUSH1 0x40 MLOAD PUSH3 0x461BCD PUSH1 0xE5 SHL DUP2 MSTORE PUSH1 0x20 PUSH1 0x4 DUP3 ADD MSTORE PUSH1 0x1D PUSH1 0x24 DUP3 ADD MSTORE PUSH32 0x557365727320617265206F76657220746865206C696D6974206F662032000000 PUSH1 0x44 DUP3 ADD MSTORE PUSH1 0x64 ADD PUSH2 0x374 JUMP JUMPDEST PUSH1 0x1 DUP1 SLOAD DUP1 DUP3 ADD DUP3 SSTORE PUSH0 SWAP2 SWAP1 SWAP2 MSTORE PUSH32 0xB10E2D527612073B26EECDFD717E6A320CF44B4AFAC2B0732D9FCBE2B7FA0CF6 DUP2 ADD DUP1 SLOAD PUSH1 0x1 PUSH1 0x1 PUSH1 0xA0 SHL SUB NOT AND CALLER OR SWAP1 SSTORE PUSH1 0x40 DUP1 MLOAD PUSH1 0xC0 DUP2 ADD DUP3 MSTORE DUP6 DUP2 MSTORE PUSH1 0xFF DUP6 AND PUSH1 0x20 DUP3 ADD MSTORE SWAP1 DUP2 ADD DUP4 PUSH1 0x2 DUP2 GT ISZERO PUSH2 0xAA0 JUMPI PUSH2 0xAA0 PUSH2 0xEDE JUMP JUMPDEST DUP2 MSTORE CALLVALUE PUSH1 0x20 DUP1 DUP4 ADD SWAP2 SWAP1 SWAP2 MSTORE PUSH1 0x40 DUP1 DUP4 ADD DUP6 SWAP1 MSTORE PUSH1 0x1 PUSH1 0x60 SWAP1 SWAP4 ADD SWAP3 SWAP1 SWAP3 MSTORE CALLER PUSH0 SWAP1 DUP2 MSTORE SWAP1 DUP2 SWAP1 MSTORE KECCAK256 DUP2 MLOAD DUP2 SWAP1 PUSH2 0xAD7 SWAP1 DUP3 PUSH2 0x1135 JUMP JUMPDEST POP PUSH1 0x20 DUP3 ADD MLOAD PUSH1 0x1 DUP3 ADD DUP1 SLOAD PUSH1 0xFF SWAP1 SWAP3 AND PUSH1 0xFF NOT DUP4 AND DUP2 OR DUP3 SSTORE PUSH1 0x40 DUP6 ADD MLOAD SWAP3 PUSH2 0xFFFF NOT AND OR PUSH2 0x100 DUP4 PUSH1 0x2 DUP2 GT ISZERO PUSH2 0xB12 JUMPI PUSH2 0xB12 PUSH2 0xEDE JUMP JUMPDEST MUL OR SWAP1 SSTORE POP PUSH1 0x60 DUP3 ADD MLOAD PUSH1 0x2 DUP3 ADD SSTORE PUSH1 0x80 DUP3 ADD MLOAD PUSH1 0x3 DUP3 ADD SSTORE PUSH1 0xA0 SWAP1 SWAP2 ADD MLOAD PUSH1 0x4 SWAP1 SWAP2 ADD DUP1 SLOAD PUSH1 0xFF NOT AND SWAP2 ISZERO ISZERO SWAP2 SWAP1 SWAP2 OR SWAP1 SSTORE PUSH1 0x40 MLOAD CALLER SWAP1 PUSH32 0x33F82D58F818823082046825EBB4C7CDFC4719AD86C8065C012F2214C6E87260 SWAP1 PUSH2 0xB7B SWAP1 DUP8 SWAP1 DUP8 SWAP1 CALLVALUE SWAP1 PUSH2 0x11F0 JUMP JUMPDEST PUSH1 0x40 MLOAD DUP1 SWAP2 SUB SWAP1 LOG2 POP POP POP POP JUMP JUMPDEST PUSH1 0x60 PUSH2 0xBC5 PUSH1 0x40 DUP1 MLOAD DUP1 DUP3 ADD SWAP1 SWAP2 MSTORE PUSH1 0x18 DUP2 MSTORE PUSH32 0x496E7465726E616C2066756E6374696F6E2063616C6C65640000000000000000 PUSH1 0x20 DUP3 ADD MSTORE SWAP1 JUMP JUMPDEST SWAP1 POP SWAP1 JUMP JUMPDEST PUSH2 0xC0D DUP2 PUSH1 0x40 MLOAD PUSH1 0x24 ADD PUSH2 0xBDE SWAP2 SWAP1 PUSH2 0x1045 JUMP JUMPDEST PUSH1 0x40 DUP1 MLOAD PUSH1 0x1F NOT DUP2 DUP5 SUB ADD DUP2 MSTORE SWAP2 SWAP1 MSTORE PUSH1 0x20 DUP2 ADD DUP1 MLOAD PUSH1 0x1 PUSH1 0x1 PUSH1 0xE0 SHL SUB AND PUSH4 0x104C13EB PUSH1 0xE2 SHL OR SWAP1 MSTORE PUSH2 0xD8D JUMP JUMPDEST POP JUMP JUMPDEST PUSH1 0x1 PUSH1 0x1 PUSH1 0xA0 SHL SUB DUP2 AND PUSH0 SWAP1 DUP2 MSTORE PUSH1 0x20 DUP2 SWAP1 MSTORE PUSH1 0x40 SWAP1 KECCAK256 PUSH1 0x4 ADD SLOAD PUSH1 0xFF AND PUSH2 0xC35 JUMPI POP JUMP JUMPDEST PUSH1 0x1 PUSH1 0x1 PUSH1 0xA0 SHL SUB DUP2 AND PUSH0 SWAP1 DUP2 MSTORE PUSH1 0x20 DUP2 SWAP1 MSTORE PUSH1 0x40 DUP2 KECCAK256 PUSH1 0x3 ADD SLOAD PUSH1 0x1 DUP1 SLOAD SWAP2 SWAP3 SWAP2 PUSH2 0xC61 SWAP2 SWAP1 PUSH2 0x1217 JUMP JUMPDEST SWAP1 POP DUP1 DUP3 EQ PUSH2 0xCE8 JUMPI PUSH0 PUSH1 0x1 DUP3 DUP2 SLOAD DUP2 LT PUSH2 0xC7E JUMPI PUSH2 0xC7E PUSH2 0x122A JUMP JUMPDEST PUSH0 SWAP2 DUP3 MSTORE PUSH1 0x20 SWAP1 SWAP2 KECCAK256 ADD SLOAD PUSH1 0x1 DUP1 SLOAD PUSH1 0x1 PUSH1 0x1 PUSH1 0xA0 SHL SUB SWAP1 SWAP3 AND SWAP3 POP DUP3 SWAP2 DUP6 SWAP1 DUP2 LT PUSH2 0xCAC JUMPI PUSH2 0xCAC PUSH2 0x122A JUMP JUMPDEST PUSH0 SWAP2 DUP3 MSTORE PUSH1 0x20 DUP1 DUP4 KECCAK256 SWAP2 SWAP1 SWAP2 ADD DUP1 SLOAD PUSH1 0x1 PUSH1 0x1 PUSH1 0xA0 SHL SUB NOT AND PUSH1 0x1 PUSH1 0x1 PUSH1 0xA0 SHL SUB SWAP5 DUP6 AND OR SWAP1 SSTORE SWAP3 SWAP1 SWAP2 AND DUP2 MSTORE SWAP1 DUP2 SWAP1 MSTORE PUSH1 0x40 SWAP1 KECCAK256 PUSH1 0x3 ADD DUP3 SWAP1 SSTORE JUMPDEST PUSH1 0x1 DUP1 SLOAD DUP1 PUSH2 0xCF9 JUMPI PUSH2 0xCF9 PUSH2 0x123E JUMP JUMPDEST PUSH0 DUP3 DUP2 MSTORE PUSH1 0x20 DUP1 DUP3 KECCAK256 DUP4 ADD PUSH0 NOT SWAP1 DUP2 ADD DUP1 SLOAD PUSH1 0x1 PUSH1 0x1 PUSH1 0xA0 SHL SUB NOT AND SWAP1 SSTORE SWAP1 SWAP3 ADD SWAP1 SWAP3 SSTORE PUSH1 0x1 PUSH1 0x1 PUSH1 0xA0 SHL SUB DUP6 AND DUP3 MSTORE DUP2 SWAP1 MSTORE PUSH1 0x40 DUP2 KECCAK256 SWAP1 PUSH2 0xD3B DUP3 DUP3 PUSH2 0xDB0 JUMP JUMPDEST POP PUSH1 0x1 DUP2 ADD DUP1 SLOAD PUSH2 0xFFFF NOT AND SWAP1 SSTORE PUSH0 PUSH1 0x2 DUP3 ADD DUP2 SWAP1 SSTORE PUSH1 0x3 DUP3 ADD SSTORE PUSH1 0x4 ADD DUP1 SLOAD PUSH1 0xFF NOT AND SWAP1 SSTORE POP POP POP JUMP JUMPDEST PUSH0 DUP1 DUP4 DUP4 ADD DUP5 DUP2 LT ISZERO PUSH2 0xD7F JUMPI PUSH0 DUP1 SWAP3 POP SWAP3 POP POP PUSH2 0xD86 JUMP JUMPDEST PUSH1 0x1 SWAP3 POP SWAP1 POP JUMPDEST SWAP3 POP SWAP3 SWAP1 POP JUMP JUMPDEST PUSH2 0xC0D DUP2 PUSH0 PUSH11 0x636F6E736F6C652E6C6F67 SWAP1 POP PUSH0 DUP1 DUP4 MLOAD PUSH1 0x20 DUP6 ADD DUP5 GAS STATICCALL POP POP POP JUMP JUMPDEST POP DUP1 SLOAD PUSH2 0xDBC SWAP1 PUSH2 0x1057 JUMP JUMPDEST PUSH0 DUP3 SSTORE DUP1 PUSH1 0x1F LT PUSH2 0xDCB JUMPI POP POP JUMP JUMPDEST PUSH1 0x1F ADD PUSH1 0x20 SWAP1 DIV SWAP1 PUSH0 MSTORE PUSH1 0x20 PUSH0 KECCAK256 SWAP1 DUP2 ADD SWAP1 PUSH2 0xC0D SWAP2 SWAP1 JUMPDEST DUP1 DUP3 GT ISZERO PUSH2 0xDF6 JUMPI PUSH0 DUP2 SSTORE PUSH1 0x1 ADD PUSH2 0xDE3 JUMP JUMPDEST POP SWAP1 JUMP JUMPDEST DUP1 CALLDATALOAD PUSH1 0xFF DUP2 AND DUP2 EQ PUSH2 0xE0A JUMPI PUSH0 DUP1 REVERT JUMPDEST SWAP2 SWAP1 POP JUMP JUMPDEST PUSH0 PUSH1 0x20 DUP3 DUP5 SUB SLT ISZERO PUSH2 0xE1F JUMPI PUSH0 DUP1 REVERT JUMPDEST PUSH2 0xE28 DUP3 PUSH2 0xDFA JUMP JUMPDEST SWAP4 SWAP3 POP POP POP JUMP JUMPDEST PUSH0 PUSH1 0x20 DUP3 DUP5 SUB SLT ISZERO PUSH2 0xE3F JUMPI PUSH0 DUP1 REVERT JUMPDEST DUP2 CALLDATALOAD PUSH1 0x1 PUSH1 0x1 PUSH1 0xA0 SHL SUB DUP2 AND DUP2 EQ PUSH2 0xE28 JUMPI PUSH0 DUP1 REVERT JUMPDEST PUSH0 DUP2 MLOAD DUP1 DUP5 MSTORE DUP1 PUSH1 0x20 DUP5 ADD PUSH1 0x20 DUP7 ADD MCOPY PUSH0 PUSH1 0x20 DUP3 DUP7 ADD ADD MSTORE PUSH1 0x20 PUSH1 0x1F NOT PUSH1 0x1F DUP4 ADD AND DUP6 ADD ADD SWAP2 POP POP SWAP3 SWAP2 POP POP JUMP JUMPDEST PUSH1 0x40 DUP2 MSTORE PUSH0 PUSH2 0xE95 PUSH1 0x40 DUP4 ADD DUP6 PUSH2 0xE55 JUMP JUMPDEST SWAP1 POP PUSH1 0xFF DUP4 AND PUSH1 0x20 DUP4 ADD MSTORE SWAP4 SWAP3 POP POP POP JUMP JUMPDEST PUSH0 PUSH1 0x20 DUP3 DUP5 SUB SLT ISZERO PUSH2 0xEB7 JUMPI PUSH0 DUP1 REVERT JUMPDEST POP CALLDATALOAD SWAP2 SWAP1 POP JUMP JUMPDEST PUSH0 DUP1 PUSH1 0x40 DUP4 DUP6 SUB SLT ISZERO PUSH2 0xECF JUMPI PUSH0 DUP1 REVERT JUMPDEST POP POP DUP1 CALLDATALOAD SWAP3 PUSH1 0x20 SWAP1 SWAP2 ADD CALLDATALOAD SWAP2 POP JUMP JUMPDEST PUSH4 0x4E487B71 PUSH1 0xE0 SHL PUSH0 MSTORE PUSH1 0x21 PUSH1 0x4 MSTORE PUSH1 0x24 PUSH0 REVERT JUMPDEST PUSH1 0xC0 DUP2 MSTORE PUSH0 PUSH2 0xF04 PUSH1 0xC0 DUP4 ADD DUP10 PUSH2 0xE55 JUMP JUMPDEST SWAP1 POP PUSH1 0xFF DUP8 AND PUSH1 0x20 DUP4 ADD MSTORE PUSH1 0x3 DUP7 LT PUSH2 0xF2B JUMPI PUSH4 0x4E487B71 PUSH1 0xE0 SHL PUSH0 MSTORE PUSH1 0x21 PUSH1 0x4 MSTORE PUSH1 0x24 PUSH0 REVERT JUMPDEST DUP6 PUSH1 0x40 DUP4 ADD MSTORE DUP5 PUSH1 0x60 DUP4 ADD MSTORE DUP4 PUSH1 0x80 DUP4 ADD MSTORE DUP3 ISZERO ISZERO PUSH1 0xA0 DUP4 ADD MSTORE SWAP8 SWAP7 POP POP POP POP POP POP POP JUMP JUMPDEST PUSH4 0x4E487B71 PUSH1 0xE0 SHL PUSH0 MSTORE PUSH1 0x41 PUSH1 0x4 MSTORE PUSH1 0x24 PUSH0 REVERT JUMPDEST DUP1 CALLDATALOAD PUSH1 0x3 DUP2 LT PUSH2 0xE0A JUMPI PUSH0 DUP1 REVERT JUMPDEST PUSH0 DUP1 PUSH0 PUSH1 0x60 DUP5 DUP7 SUB SLT ISZERO PUSH2 0xF84 JUMPI PUSH0 DUP1 REVERT JUMPDEST DUP4 CALLDATALOAD PUSH8 0xFFFFFFFFFFFFFFFF DUP2 GT ISZERO PUSH2 0xF9A JUMPI PUSH0 DUP1 REVERT JUMPDEST DUP5 ADD PUSH1 0x1F DUP2 ADD DUP7 SGT PUSH2 0xFAA JUMPI PUSH0 DUP1 REVERT JUMPDEST DUP1 CALLDATALOAD PUSH8 0xFFFFFFFFFFFFFFFF DUP2 GT ISZERO PUSH2 0xFC4 JUMPI PUSH2 0xFC4 PUSH2 0xF50 JUMP JUMPDEST PUSH1 0x40 MLOAD PUSH1 0x1F DUP3 ADD PUSH1 0x1F NOT SWAP1 DUP2 AND PUSH1 0x3F ADD AND DUP2 ADD PUSH8 0xFFFFFFFFFFFFFFFF DUP2 GT DUP3 DUP3 LT OR ISZERO PUSH2 0xFF3 JUMPI PUSH2 0xFF3 PUSH2 0xF50 JUMP JUMPDEST PUSH1 0x40 MSTORE DUP2 DUP2 MSTORE DUP3 DUP3 ADD PUSH1 0x20 ADD DUP9 LT ISZERO PUSH2 0x100A JUMPI PUSH0 DUP1 REVERT JUMPDEST DUP2 PUSH1 0x20 DUP5 ADD PUSH1 0x20 DUP4 ADD CALLDATACOPY PUSH0 PUSH1 0x20 DUP4 DUP4 ADD ADD MSTORE DUP1 SWAP6 POP POP POP POP PUSH2 0x102E PUSH1 0x20 DUP6 ADD PUSH2 0xDFA JUMP JUMPDEST SWAP2 POP PUSH2 0x103C PUSH1 0x40 DUP6 ADD PUSH2 0xF64 JUMP JUMPDEST SWAP1 POP SWAP3 POP SWAP3 POP SWAP3 JUMP JUMPDEST PUSH1 0x20 DUP2 MSTORE PUSH0 PUSH2 0xE28 PUSH1 0x20 DUP4 ADD DUP5 PUSH2 0xE55 JUMP JUMPDEST PUSH1 0x1 DUP2 DUP2 SHR SWAP1 DUP3 AND DUP1 PUSH2 0x106B JUMPI PUSH1 0x7F DUP3 AND SWAP2 POP JUMPDEST PUSH1 0x20 DUP3 LT DUP2 SUB PUSH2 0x1089 JUMPI PUSH4 0x4E487B71 PUSH1 0xE0 SHL PUSH0 MSTORE PUSH1 0x22 PUSH1 0x4 MSTORE PUSH1 0x24 PUSH0 REVERT JUMPDEST POP SWAP2 SWAP1 POP JUMP JUMPDEST PUSH0 DUP3 MLOAD DUP1 PUSH1 0x20 DUP6 ADD DUP5 MCOPY PUSH17 0x101E169F103BB4BA34323930BBB4B7339 PUSH1 0x7D SHL SWAP3 ADD SWAP2 DUP3 MSTORE POP PUSH1 0x11 ADD SWAP2 SWAP1 POP JUMP JUMPDEST PUSH4 0x4E487B71 PUSH1 0xE0 SHL PUSH0 MSTORE PUSH1 0x11 PUSH1 0x4 MSTORE PUSH1 0x24 PUSH0 REVERT JUMPDEST PUSH1 0xFF DUP2 DUP2 AND DUP4 DUP3 AND ADD SWAP1 DUP2 GT ISZERO PUSH2 0x85A JUMPI PUSH2 0x85A PUSH2 0x10BC JUMP JUMPDEST PUSH1 0x1F DUP3 GT ISZERO PUSH2 0x1130 JUMPI DUP1 PUSH0 MSTORE PUSH1 0x20 PUSH0 KECCAK256 PUSH1 0x1F DUP5 ADD PUSH1 0x5 SHR DUP2 ADD PUSH1 0x20 DUP6 LT ISZERO PUSH2 0x110E JUMPI POP DUP1 JUMPDEST PUSH1 0x1F DUP5 ADD PUSH1 0x5 SHR DUP3 ADD SWAP2 POP JUMPDEST DUP2 DUP2 LT ISZERO PUSH2 0x112D JUMPI PUSH0 DUP2 SSTORE PUSH1 0x1 ADD PUSH2 0x111A JUMP JUMPDEST POP POP JUMPDEST POP POP POP JUMP JUMPDEST DUP2 MLOAD PUSH8 0xFFFFFFFFFFFFFFFF DUP2 GT ISZERO PUSH2 0x114F JUMPI PUSH2 0x114F PUSH2 0xF50 JUMP JUMPDEST PUSH2 0x1163 DUP2 PUSH2 0x115D DUP5 SLOAD PUSH2 0x1057 JUMP JUMPDEST DUP5 PUSH2 0x10E9 JUMP JUMPDEST PUSH1 0x20 PUSH1 0x1F DUP3 GT PUSH1 0x1 DUP2 EQ PUSH2 0x1195 JUMPI PUSH0 DUP4 ISZERO PUSH2 0x117E JUMPI POP DUP5 DUP3 ADD MLOAD JUMPDEST PUSH0 NOT PUSH1 0x3 DUP6 SWAP1 SHL SHR NOT AND PUSH1 0x1 DUP5 SWAP1 SHL OR DUP5 SSTORE PUSH2 0x112D JUMP JUMPDEST PUSH0 DUP5 DUP2 MSTORE PUSH1 0x20 DUP2 KECCAK256 PUSH1 0x1F NOT DUP6 AND SWAP2 JUMPDEST DUP3 DUP2 LT ISZERO PUSH2 0x11C4 JUMPI DUP8 DUP6 ADD MLOAD DUP3 SSTORE PUSH1 0x20 SWAP5 DUP6 ADD SWAP5 PUSH1 0x1 SWAP1 SWAP3 ADD SWAP2 ADD PUSH2 0x11A4 JUMP JUMPDEST POP DUP5 DUP3 LT ISZERO PUSH2 0x11E1 JUMPI DUP7 DUP5 ADD MLOAD PUSH0 NOT PUSH1 0x3 DUP8 SWAP1 SHL PUSH1 0xF8 AND SHR NOT AND DUP2 SSTORE JUMPDEST POP POP POP POP PUSH1 0x1 SWAP1 DUP2 SHL ADD SWAP1 SSTORE POP JUMP JUMPDEST PUSH1 0x60 DUP2 MSTORE PUSH0 PUSH2 0x1202 PUSH1 0x60 DUP4 ADD DUP7 PUSH2 0xE55 JUMP JUMPDEST PUSH1 0xFF SWAP5 SWAP1 SWAP5 AND PUSH1 0x20 DUP4 ADD MSTORE POP PUSH1 0x40 ADD MSTORE SWAP2 SWAP1 POP JUMP JUMPDEST DUP2 DUP2 SUB DUP2 DUP2 GT ISZERO PUSH2 0x85A JUMPI PUSH2 0x85A PUSH2 0x10BC JUMP JUMPDEST PUSH4 0x4E487B71 PUSH1 0xE0 SHL PUSH0 MSTORE PUSH1 0x32 PUSH1 0x4 MSTORE PUSH1 0x24 PUSH0 REVERT JUMPDEST PUSH4 0x4E487B71 PUSH1 0xE0 SHL PUSH0 MSTORE PUSH1 0x31 PUSH1 0x4 MSTORE PUSH1 0x24 PUSH0 REVERT INVALID LOG2 PUSH5 0x6970667358 0x22 SLT KECCAK256 0xC7 JUMPDEST PUSH27 0x22D81A9A6B73E6F92A6C90FEB5E4BCD8E4ED4686BBA260D8D9EBA3 0x4E 0xB2 PUSH5 0x736F6C6343 STOP ADDMOD BYTE STOP CALLER "},"gasEstimates":{"creation":{"codeDepositCost":"948800","executionCost":"infinite","totalCost":"infinite"},"external":{"":"2109","MAX_PEOPLE()":"infinite","add(uint256,uint256)":"454","addUser(string,uint8,uint8)":"infinite","getAge(uint8)":"infinite","getInternalFunctionResult()":"infinite","getUserCount()":"2346","owner()":"infinite","userAddresses(uint256)":"4700","userDetails(address)":"infinite","users(address)":"infinite","withdraw()":"infinite"}},"methodIdentifiers":{"MAX_PEOPLE()":"0f81b49f","add(uint256,uint256)":"771602f7","addUser(string,uint8,uint8)":"d8544aea","getAge(uint8)":"47e12f8c","getInternalFunctionResult()":"f48c381f","getUserCount()":"b5cb15f7","owner()":"8da5cb5b","userAddresses(uint256)":"502c9bd5","userDetails(address)":"48dec2a7","users(address)":"a87430ba","withdraw()":"3ccfd60b"}},"storageLayout":{"storage":[{"astId":1444,"contract":"contracts/StakingContract.sol:ExtendedSolidity","label":"users","offset":0,"slot":"0","type":"t_mapping(t_address,t_struct(User)1438_storage)"},{"astId":1447,"contract":"contracts/StakingContract.sol:ExtendedSolidity","label":"userAddresses","offset":0,"slot":"1","type":"t_array(t_address)dyn_storage"}],"types":{"t_address":{"encoding":"inplace","label":"address","numberOfBytes":"20"},"t_array(t_address)dyn_storage":{"base":"t_address","encoding":"dynamic_array","label":"address[]","numberOfBytes":"32"},"t_bool":{"encoding":"inplace","label":"bool","numberOfBytes":"1"},"t_enum(Ethnicity)1424":{"encoding":"inplace","label":"enum StakingContract.Ethnicity","numberOfBytes":"1"},"t_mapping(t_address,t_struct(User)1438_storage)":{"encoding":"mapping","key":"t_address","label":"mapping(address => struct StakingContract.User)","numberOfBytes":"32","value":"t_struct(User)1438_storage"},"t_string_storage":{"encoding":"bytes","label":"string","numberOfBytes":"32"},"t_struct(User)1438_storage":{"encoding":"inplace","label":"struct StakingContract.User","members":[{"astId":1426,"contract":"contracts/StakingContract.sol:ExtendedSolidity","label":"name","offset":0,"slot":"0","type":"t_string_storage"},{"astId":1428,"contract":"contracts/StakingContract.sol:ExtendedSolidity","label":"age","offset":0,"slot":"1","type":"t_uint8"},{"astId":1431,"contract":"contracts/StakingContract.sol:ExtendedSolidity","label":"ethnicity","offset":1,"slot":"1","type":"t_enum(Ethnicity)1424"},{"astId":1433,"contract":"contracts/StakingContract.sol:ExtendedSolidity","label":"balance","offset":0,"slot":"2","type":"t_uint256"},{"astId":1435,"contract":"contracts/StakingContract.sol:ExtendedSolidity","label":"index","offset":0,"slot":"3","type":"t_uint256"},{"astId":1437,"contract":"contracts/StakingContract.sol:ExtendedSolidity","label":"exists","offset":0,"slot":"4","type":"t_bool"}],"numberOfBytes":"160"},"t_uint256":{"encoding":"inplace","label":"uint256","numberOfBytes":"32"},"t_uint8":{"encoding":"inplace","label":"uint8","numberOfBytes":"1"}}},"userdoc":{"kind":"user","methods":{"addUser(string,uint8,uint8)":{"notice":"Function that allows users to store Ether in the smart contract"},"getAge(uint8)":{"notice":"Get the age of the calling address after x years"},"getUserCount()":{"notice":"Function returns the number of users in the smart contract"},"users(address)":{"notice":"Mappings in Solidity (mapping(address => uint256)) do not have a built-in way to check if a key exists  because all possible keys default to their zero value if not explicitly set. You can use an additional boolean mapping to track whether a key has been set"},"withdraw()":{"notice":"Function that allows the users to withdraw all the Ether they deposited in the smart contract"}},"notice":"Inheritance List in order of most base-like to most derived","version":1}}}}